:100000000C94D7020C941B030C941B030C941B033D
:100010000C941B030C941B030C941B030C941B03E8
:100020000C941B030C941B030C94520E0C94240F81
:100030000C941B030C941B030C941B030C941B03C8
:100040000C941B030C942D230C941B030C941B0386
:100050000C941B030C94C01C0C941B030C941B03EA
:100060000C941B030C941B030C941B030C941B0398
:100070000C941B030C941B030C941B030C941B0388
:100080000C941B030C941B030C941B030C941B0378
:100090000C941B030C941B030C941B030C941B0368
:1000A0000C941B030C941B030C941B03910FB30FB4
:1000B000A110B30FA110F80F1B10A1107010831026
:1000C0005213521381138113B713D7130815081550
:1000D000E213081592149214F91408150815021564
:1000E0009F149F149F149F149F149F149F149F1478
:1000F0009F149F149F149F149F149F149F149F1468
:10010000B114BE14C514CC14D61401E1014D024D36
:1001100002E101E00106020602E0000000F0A11E7B
:10012000002B00E000E100354100001F0014000436
:10013000001D001F024C0020001A0016001B0029A1
:10014000002A002100080007000600E3002C4322DB
:100150000015000900190035742800230017000A53
:1001600000050000006500290028000000007F0055
:100170000029002300015400000500000050002465
:10018000001C000B00110000004F00250018000D9E
:100190000010003000520026000C000E0036003126
:1001A000002842270012000F00370089022A412D43
:1001B00000130033003800890051002E002F003456
:1001C000718772004100003A000100010001000146
:1001D0000000003B000100010001000100FA003CAA
:1001E000000100F20001000100F5003D00F000F107
:1001F0000001000100F4003E000100F300010001D5
:1002000000F9003F000100010001000000FB0001B7
:10021000000100000001000000FC003F00010000A0
:1002200000010000004A004000520051002402007A
:10023000004D004100240021001E0027004B004219
:1002400000250022001F00000001004300260023BB
:1002500000200037000100440025022E0231002E4C
:10026000004E0045004500010001000100000001B2
:100270000001002800010001000000010001004A07
:10028000008B00010001000100520051008A0001B2
:1002900000010001004D004F008800010001000135
:1002A000000100B300B20001000100010001000BD9
:1002B00000B1000000010001000100000001000089
:1002C00000010000500100000001000000010001D9
:1002D0000001005000010000000100010049005130
:1002E0000001300F080100010046005200490201E0
:1002F000000100010001004F00490101004C05010F
:1003000000480030020100010029032A00300231B8
:1003100002E5004C0000002E002F00340087000191
:100320000000002D001300330038000100010027F9
:100330000012000F0037000100010026000C000E23
:1003400000360001000100250018000D001000011A
:1003500000010024001C000B00110000000100231C
:100360000001000000010000000100010001000088
:100370000001000000010001000100010001000077
:1003800000010001003A003E0042000100010001AE
:10039000003B003F0043000100010001003C004021
:1003A0000044000100010001003D00410045000142
:1003B0000001000100010001000100010000001621
:1003C000034500720067006F0044006F0078002052
:1003D0000045005A00000016034500720067006FD8
:1003E0000044006F007800200045005A000000041F
:1003F00003090409026D00040100A0FA09040000C9
:10040000010301010009211101000122400007053B
:10041000810308000A090401000103010200092107
:1004200011010001224D000705820308000A09049A
:100430000200010300000009211101000122360021
:100440000705830308000A090403000103000000F4
:100450000921110100012239000705840310000160
:100460001201100100000008EDFE07130100010257
:10047000000105010906A101050719E029E715009A
:1004800025019508750181020508190129059505C1
:1004900075019102950175039101050719002977EE
:1004A00015002501957875018102C005010980A11B
:1004B00001850216010026B7001A01002AB700754F
:1004C0001095018100C0050C0901A10185031601E9
:1004D00000269C021A01002A9C02751095018100D9
:1004E000C005010902A1010901A10005091901299D
:1004F000051500250195057501810295017503819A
:10050000010501093009311581257F9502750881A2
:100510000609381581257F950175088106050C0AA5
:1005200038021581257F950175088106C0C0050137
:100530000906A101050719E029E71500250195081D
:1005400075018102950175088101050819012905C8
:100550009505750191029501750391010507190033
:1005600029FF150026FF00950675088100C00000D0
:10057000000000000000000000010204060A0F173E
:10058000202C3A4A5D71879DB3C7DAE9F5FCFFFC80
:10059000F5E9DAC7B39D87715D4A3A2C20170F0A37
:1005A0000604020100000000000000000000112409
:1005B0001FBECFEFDAE0DEBFCDBF04B603FE24C01E
:1005C0008091FC019091FD01A091FE01B091FF018D
:1005D0008730904BA740B04BB9F41092FC011092B9
:1005E000FD011092FE011092FF0114BE84B7877FB7
:1005F00084BF88E10FB6F894809360001092600089
:100600000FBEE0E0FFE3099511E0A0E0B1E0E8EE05
:10061000F9E402C005900D92A433B107D9F711E0B7
:10062000A4E3B1E001C01D92AC3FB107E1F70E9425
:100630009A0B0C94F2240C9400001092B9008AE0FA
:100640008093B800089594EA9093BC009091BC0008
:1006500097FFFCCF9091B900987F983021F09031AE
:1006600011F081E008958093BB0084E88093BC0082
:100670008091BC0087FFFCCF8091B900887F8831D2
:1006800011F0803471F780E0089584E98093BC0014
:100690008091BC0084FDFCCF08958093BB0084E86A
:1006A0008093BC008091BC0087FFFCCF9091B90083
:1006B000987F81E0983209F480E0089584E880937F
:1006C000BC008091BC0087FFFCCF8091BB000895E7
:1006D00080B38C7080BB81B3836F81BB08958091A0
:1006E0000101811115C080E40E9423038093010160
:1006F00081110CC082E10E944D03809301018111A0
:1007000005C08FEF0E944D03809301010E944503B5
:1007100084B1807F84B985B1807F85B98AB1837FB8
:100720008AB98BB1837F8BB93E98469808950E9411
:100730003905809301010E946F030E946803A5E3BD
:10074000B1E0E3E4F1E08EE08E0F11921D928E1382
:10075000FCCF0C9423050E943905809301010E946F
:100760006F030E946803A5E3B1E0E3E4F1E08EE0EB
:100770008E0F11921D928E13FCCF0895BF92CF92CF
:10078000DF92EF92FF920F931F93CF93DF938091AD
:100790000101882379F0809134018F5F80933401C7
:1007A000811108C00E94390580930101811102C0A6
:1007B0000E94CB0405E311E0C0E0D0E0DD24D39437
:1007C00082E0C82EEE24E394F12CC730D10500F569
:1007D00080910101811164C080E40E942303809311
:1007E0000101811112C082E10E944D038093010139
:1007F00081110BC0C7010C2E01C0880F0A94EAF7C3
:1008000080950E944D03809301010E94450348C0DA
:10081000CA30A1F028F4C83059F0C93061F005C0E1
:10082000CC3089F070F0CD3089F0209A289810C033
:10083000219A29980DC0229A2A980AC0239A2B98A7
:1008400007C0529A01C0539A5B9802C03E9A4698DC
:1008500090EA9A95F1F79FB1799902C082E001C0C0
:1008600080E091709D25982B7C9902C084E001C0A6
:1008700080E0892B7D9902C038E001C030E0832BF5
:100880007E9902C020E101C020E0822B9FB19095AB
:10089000991F9927991F9295990F907E892B0FC0C8
:1008A00080910101811149C080E40E94230380935B
:1008B0000101882379F1B12C0E9445038B2DF801A9
:1008C0009081981719F08083C09200010E946F03F5
:1008D00021960F5F1F4FCE30D10509F076CF809162
:1008E0000001882361F1815080930001882339F051
:1008F0008FE99FE00197F1F700C0000020C0A3E45A
:10090000B1E0E5E3F1E0CF01825F91919D938E1319
:10091000FCCF15C083E10E944D038093010181113A
:10092000CACF81E40E942303809301018111C3CFC8
:100930000E945E03B82EB094BFCF80E0C0CF0E946B
:10094000C90481E0DF91CF911F910F91FF90EF904B
:10095000DF90CF90BF900895E82FF0E0ED5BFE4F61
:100960008081089508950F931F93CF93DF93C3E47D
:10097000D1E010E00C2F025F899190E00E94E71B0C
:10098000180F0C13F9CF812FDF91CF911F910F9189
:1009900008950C94A60556985E9825982D9826984B
:1009A0002E9827982F988FEF90E09093890080934E
:1009B000880090938B0080938A0090938D008093A1
:1009C0008C00259A2D9A2FEF80E792E021508040ED
:1009D0009040E1F700C00000269A2E9A2FEF80E7A2
:1009E00092E0215080409040E1F700C00000279A3B
:1009F0002F9A2FEF80E792E0215080409040E1F75E
:100A000000C0000025982D982FEF80E792E021503C
:100A100080409040E1F700C0000026982E982FEF0C
:100A200080E792E0215080409040E1F700C0000054
:100A300027982F9856985E9825982D9826982E9846
:100A400027982F98089589EA8093800089E0809301
:100A5000810024982C983F988AB18F748AB96E9837
:100A6000479A8BB1806B8BB9769A0E94CB040C9419
:100A7000A50580E2809301018091510181110EC092
:100A80000E941D0381E0809351012FEF83ED90E3DD
:100A9000215080409040E1F700C0000080E40E94B7
:100AA00023038093010181112EC00E944D03809386
:100AB0000101811128C00E944D0380930101811121
:100AC00022C08FE30E944D038093010181111BC05E
:100AD0000E94450380E40E94230380930101811159
:100AE00012C08CE00E944D038093010181110BC064
:100AF0000E944D0380930101811105C08FE30E9484
:100B00004D03809301010E944503809101010895E6
:100B1000662319F0613069F015C0FC0182818823D9
:100B200021F085EE0E94F6110DC085EE0E94BE12E6
:100B300009C0FC018281882329F0269A2E9A8AE036
:100B400091E0089580E090E0089508956091BE01DD
:100B50007091BF018091C0019091C1010E94F31B6F
:100B600056985E9825982D9826982E9827982F9815
:100B7000813019F0823021F00895259A2D9A089538
:100B8000279A2F9A089581E0089581E008950C94A2
:100B9000C5050895282F882339F090E02A3010F4F5
:100BA0004D9608950697089587E290E00895AF92D4
:100BB000BF92DF92EF92FF920F931F93CF93DF9339
:100BC0008C01FC01C081D181CE010E946C1ABE0152
:100BD0000E94E806EC01B8010E94C705882309F4C9
:100BE000EBC0F8018281882309F4A0C080915E01E6
:100BF00081111FC0C431F0E5DF0709F0D7C00E94A2
:100C0000C90581E080935E010E948A1C90935D017A
:100C100080935C0110925501109257011092560179
:100C2000109259011092580110925B0110925A01D2
:100C3000C3C080915C0190915D010E94961C883C2C
:100C4000910570F480915501E82FF0E0EE0FFF1F41
:100C5000EA5AFE4FD183C0838F5F80935501ACC0A9
:100C6000C13080E8D80708F451C0F8018281882398
:100C700009F460C05E01E894B7F8809154018130B6
:100C800079F050F08230C1F482EE0E94F61187E5CF
:100C90000E94F61187E50EC082EE0E94F6110CC08C
:100CA00080EE0E94F61181EE0E94F61188E10E940A
:100CB000F61188E10E94BE128CE0E82EF12CC501ED
:100CC0000E2C02C0969587950A94E2F78F700E94C9
:100CD000CA05D82E0E94F6118D2D0E94BE12F4E096
:100CE000EF1AF1088CEFE8168FEFF80641F78091C4
:100CF0005401813029F010F0823041F482EE04C0BA
:100D000080EE0E94BE1281EE0E94BE12C438E0E561
:100D1000DE0721F0C538D04501F137C0F8018281E6
:100D2000882361F01092520182E01EC0C130F0E8C9
:100D3000DF0760F3C43880E5D80761F48091520181
:100D4000811106C086E20E94F61186E20E94BE1260
:100D500082E018C0C538D045C1F4F80182818823EB
:100D600031F01092530182E10E940D1325C0809151
:100D70005301811106C087E20E94F61187E20E94AA
:100D8000BE1282E10E94141317C081E080935201C9
:100D900080935301C801DF91CF911F910F91FF9074
:100DA000EF90DF90BF90AF900C94C305C130F0E896
:100DB000DF0708F05FCFAACF80E0DF91CF911F91CE
:100DC0000F91FF90EF90DF90BF90AF90089508953E
:100DD00096E0799FF001112494E5899FE00DF11DC3
:100DE0001124E60FF11DEE0FFF1FE15EFE4F85910E
:100DF00094910895880F991FFC01E556F040859164
:100E000094910895880F991FFC01E55EFE4F85912E
:100E1000949108950F931F93CF93DF93EC01811565
:100E2000904350F5C11580E2D80708F0C3C0CB3B12
:100E3000D10590F4C83AD10508F06AC0C53AD10589
:100E400008F05BC0C430D10508F0D0C1219709F08B
:100E5000CAC101E010E00AC2CF3FD10511F008F08D
:100E6000C5C1C03FD10508F0A2C0CE01805E910986
:100E7000089708F4BBC1B7C1C13090E5D90709F4A0
:100E8000A2C020F5C0318FE4D80770F4C11590E4FA
:100E9000D90708F094C0C11521E3D20708F0A3C117
:100EA000DD278E01106CE2C1C115D04509F09BC150
:100EB0000E9473158FEF94E32CE081509040204006
:100EC000E1F700C000000E94E51CD0C1C11597E504
:100ED000D90758F4C03121E5D20708F01CC1C4314C
:100EE00080E5D80708F475C07EC1CE019057811502
:100EF000904108F078C1DF7073C1C53AD10509F49B
:100F000077C1C63AD10509F076C102E810E4AEC156
:100F1000C83AD10509F472C1C93AD10509F471C1C1
:100F2000CA3AD10509F470C1CB3AD10509F46FC1B1
:100F3000CC3AD10509F46EC1CD3AD10509F46DC1A1
:100F4000C03BD10509F46CC1CE3AD10509F46BC19F
:100F5000CF3AD10509F46AC1C13BD10509F469C191
:100F6000C23BD10509F468C1C33BD10509F467C18F
:100F7000C43BD10509F466C1C53BD10509F465C17F
:100F8000C63BD10509F464C1C73BD10509F463C16F
:100F9000C83BD10509F462C1C93BD10509F461C15F
:100FA000CA3BD10509F460C100E014E45FC18E01C1
:100FB00010655CC1CE019F700E94020758C1DF70AE
:100FC0008E01106A53C18091DB0181608093DB0147
:100FD0004DC10E948A1E811102C00E94701E0E9493
:100FE000A71E90E09093FC018093FB01C23080E546
:100FF000D80721F48091FB01816086C0C43090E560
:10100000D90721F48091FB0182607EC0C63020E5C3
:10101000D20721F48091FB01846076C0C83080E55E
:10102000D80719F48091FB0127C0CA3090E5D90791
:1010300021F48091FB01806167C0CC3020E5D207AC
:1010400021F48091FB0180625FC0CE3080E5D8073B
:1010500021F48091FB01806457C0C03190E5D9072D
:1010600021F48091FB0180684FC0C23120E5D20796
:1010700029F48091FB018460886046C0C33080E51C
:10108000D80721F48091FB018E7F3EC0C53090E5EA
:10109000D90721F48091FB018D7F36C0C73020E550
:1010A000D20721F48091FB018B7F2EC0C93080E5EF
:1010B000D80719F48091FB0126C0CB3090E5D90701
:1010C00021F48091FB018F7E1FC0CD3020E5D20737
:1010D00021F48091FB018F7D17C0CF3080E5D807C8
:1010E00021F48091FB018F7B0FC0C13190E5D907BE
:1010F00021F48091FB018F7707C0C331D04531F4D3
:101100008091FB018B7F877F8093FB018091FB01A6
:101110000E94AB1EABC08D2F99278F70992781300D
:101120009105D9F49E012370332702C0880F991FBF
:101130002A95E2F79C688E0144E0000F111F4A9542
:10114000E1F700271370802B912B53E0CC0FDD1FAC
:101150005A95E1F7C076DD272FC08230910531F432
:10116000DC2FCC278E01016F106A80C0833091057F
:1011700069F4CE018370992701E010E002C0000FEE
:10118000111F8A95E2F7C8019C680FC08430910551
:10119000B9F4CE018370992701E010E002C0000F7E
:1011A000111F8A95E2F7C8019A6823E0CC0FDD1F72
:1011B0002A95E1F7C07ED7708C010C2B1D2B56C0F1
:1011C0008530910531F4DC2FCC278E01046F106A35
:1011D0004DC0069709F04AC0CF71DD27DC2FCC2720
:1011E0008E01106243C000E010E040C08E013EC09E
:1011F00001E810E43BC003E810E438C002EE14E458
:1012000035C009EE14E432C00AEE14E42FC005EB39
:1012100014E42CC006EB14E429C007EB14E426C048
:101220000CEC14E423C00DEC14E420C003E815E436
:101230001DC00AE815E41AC002E915E417C004E964
:1012400015E414C001E216E411C003E216E40EC076
:1012500004E216E40BC005E216E408C006E216E458
:1012600005C007E216E402C00AE216E4C801DF91F5
:10127000CF911F910F91089596E0799FF00111246D
:1012800094E5899FE00DF11D1124E60FF11DEE0F8D
:10129000FF1FE15EFE4F85919491803E9105E0F441
:1012A000803C910558F58133910509F46FC048F4ED
:1012B0008932910509F463C08A32910509F46DC041
:1012C00072C089339105E9F082389105D1F08533F8
:1012D000910509F44DC067C0833E910581F138F452
:1012E000803E9105B9F0823E9105D9F05CC0863E02
:1012F000910561F1873E9105A1F155C00E94FA0662
:1013000008952091FB0120FD02C021FF4CC080EE1A
:1013100090E049C08091FB0180FFF9CF89E390E024
:1013200042C08091FB0182FF0EC08091FB0184FFCF
:1013300003C080E090E037C083EE90E034C080913D
:10134000FB0182FFF2CF82EE90E02DC08091FB0185
:1013500083FF0BC08091FB0184FDEBCF87EE90E013
:1013600022C08091FB0183FFF5CF86EE90E01BC089
:101370008091FB0185FF07C089E290E014C0809155
:10138000FB0185FFF9CF85E390E00DC08091FB0163
:1013900086FF07C08AE290E006C08091FB0186FFCD
:1013A000F9CF81E390E00E940A07089508950C9414
:1013B000D60980916F010895CF93DF9300D01F92DB
:1013C000CDB7DEB79C018091F201843019F593E02E
:1013D00099833B832A839093E9008FEF9091E800F3
:1013E000815095FD06C095ED9A95F1F700008111A9
:1013F000F5CF8091E80085FF0DC040E050E063E04C
:1014000070E0CE0101960E94420C8091E8008E7738
:101410008093E8000F900F900F90DF91CF91089587
:10142000CF93DF9300D01F92CDB7DEB72091F201AA
:10143000243021F522E029839B838A8383E08093F3
:10144000E9008FEF9091E800815095FD06C095ED81
:101450009A95F1F700008111F5CF8091E80085FFA2
:101460000DC040E050E063E070E0CE0101960E94C4
:10147000420C8091E8008E778093E8000F900F90E7
:101480000F90DF91CF9108952091F2012430F1F473
:1014900022E02093E9002FEF3091E800215035FD44
:1014A00006C035ED3A95F1F700002111F5CF2091F6
:1014B000E80025FF0BC040E050E065E070E00E94CE
:1014C000420C8091E8008E778093E8000895CF93D6
:1014D000DF93EC019091F201943009F046C08091C5
:1014E0000C018823D9F080910D018823B9F09093E5
:1014F000E9008FEF9091E800815095FD06C095E1DD
:101500009A95F1F700008111F5CF8091E80085FFF1
:101510002CC040E050E060E170E017C081E08093B3
:10152000E9008FEF9091E800815095FD06C095EDA0
:101530009A95F1F700008111F5CF8091E80085FFC1
:1015400014C040E050E068E070E0CE010E94420C20
:101550008091E8008E778093E80080E1FE01AFE59E
:10156000B1E001900D928A95E1F7DF91CF91089556
:101570008091F101811109C00E94D70D0E94340EA3
:101580008091E20084608093E20008951092F1015E
:10159000089508950C941A230E947B1C0E94202316
:1015A0000E94DA100C94D70942E061EC81E00E94BD
:1015B000510D42E061EC82E00E94510D42E061EC8D
:1015C00083E00E94510D42E161EC84E00C94510DE6
:1015D0008091F401833009F455C030F4813071F00A
:1015E000823009F48EC008958A3009F47AC08B30B5
:1015F00009F460C0893009F09CC020C08091F301DB
:10160000813A09F096C08091E800877F8093E800D6
:101610008091F7019091F801892B21F460E18FE529
:1016200091E003C060E080E090E070E00E948D0CEB
:101630008091E8008B778093E80008958091F30112
:10164000813209F076C08091F7019091F8010097FE
:1016500019F0039709F06DC08091E800877F8093AF
:10166000E8008091E80082FD05C08091F2018111BF
:10167000F8CF5FC08091F10080936F018091E80006
:101680008B7753C08091F301813A09F052C0809169
:10169000F7019091F801892B09F04BC08091E80087
:1016A000877F8093E8008091E80080FFFCCF8091E5
:1016B0000C0136C08091F3018132D9F58091F70198
:1016C0009091F801892BA9F58091E800877F80939C
:1016D000E8000E94860D8091F50180930C010C9426
:1016E00073158091F301813221F58091E800877FA5
:1016F0008093E8000E94860D8091F601809370012E
:1017000008958091F301813AA1F48091E800877FE8
:101710008093E8008091E80080FFFCCF8091700109
:101720008093F1008091E8008E778093E8000C941C
:10173000860D089584B7877F84BF88E10FB6F8943B
:1017400080936000109260000FBE80E8809361007B
:10175000109261000E9429110E94D70D0E94340E40
:101760008091E20084608093E20078940E94BA1035
:101770000E942B1182E091E00E94D5100E94082364
:101780008091F201853069F40E94431C8091F00140
:101790008823B1F30E946D1C882391F30E942C0CC6
:1017A000EFCF0E943111ECCF292F332723303105A1
:1017B000C9F064F42130310581F02230310509F09F
:1017C00043C08DE690E023EF33E042C02132310583
:1017D000F1F02232310541F137C082E190E020E69C
:1017E00034E036C099278130910541F0823091056F
:1017F00041F0892B49F5EFEEF3E005C0E7EDF3E0AA
:1018000002C0EFEBF3E0849190E09F0121C06430CF
:10181000D8F4E62FF0E0EE0FFF1FEE5DFE4F2081C3
:10182000318189E090E014C0643070F470E0FB0115
:10183000EE0FFF1FE65EFE4F20813181FB01EA5E65
:10184000FE4F808190E004C080E090E020E030E036
:10185000FA0131832083089580E189BD82E189BD49
:1018600009B400FEFDCF8091D8008F7D8093D80011
:101870008091E00082608093E0008091E00081FD33
:10188000FCCF0895CF92DF92EF92FF920F931F93B8
:10189000CF93DF93EC018B016A010E94A50D8111AA
:1018A00033C0C114D10439F0F60180819181081B45
:1018B000190BC80FD91FE12CF12C0115110519F1D5
:1018C0008091E80085FD16C08091E8008E778093B6
:1018D000E800C114D10449F0F60180819181E80E3D
:1018E000F91EF182E08285E00FC00E94A50D8823D9
:1018F00021F30AC089918093F10001501109FFEF93
:10190000EF1AFF0ADACF80E0DF91CF911F910F919C
:10191000FF90EF90DF90CF9008952091F9013091E2
:10192000FA012617370748F06115710539F420913F
:10193000E8002E772093E80001C0B90140E061156E
:101940007105A9F12091F201222309F443C0253049
:1019500009F442C02091E80023FD40C02091E80036
:1019600022FD32C02091E80020FFE9CF4091F30032
:101970002091F20030E0342BFC01CF01611571059C
:1019800059F02830310540F481918093F100615085
:1019900071092F5F3F4FF1CF41E02830310509F049
:1019A00040E02091E8002E772093E800C8CF411155
:1019B000C9CF0AC08091F201882361F0853061F0BF
:1019C0008091E80083FD0AC08091E80082FFF2CF99
:1019D00080E0089582E0089583E0089581E008950D
:1019E0002091F9013091FA012617370748F0611567
:1019F000710539F42091E8002E772093E80001C0AA
:101A0000B901FC0120E06115710591F18091F201AD
:101A1000882309F440C0853009F43FC08091E80074
:101A200083FD3DC08091E80082FD2FC08091E800D9
:101A300080FFE9CF2091F3008091F20090E0922B9B
:101A40006115710559F08830910540F42491209377
:101A5000F1003196615071090196F2CF21E00897AB
:101A600009F020E08091E8008E778093E800CBCFEA
:101A70002111CCCF0AC08091F201882361F085301A
:101A800061F08091E80083FD0AC08091E80082FF48
:101A9000F2CF80E0089582E0089583E0089581E028
:101AA0000895982F973058F59093E900981739F0DA
:101AB0007091EC002091ED005091F00003C0242FB4
:101AC000762F50E021FF19C03091EB003E7F30931C
:101AD000EB003091ED003D7F3093ED003091EB0055
:101AE00031603093EB007093EC002093ED00509345
:101AF000F0002091EE0027FF07C09F5FD3CF8F70CB
:101B00008093E90081E0089580E008958091F301D9
:101B100087FF11C08091E80082FD05C08091F2012D
:101B20008111F8CF11C08091E8008B770BC08091B4
:101B3000F201882349F08091E80080FFF8CF80917E
:101B4000E8008E778093E80008952091E4003091BA
:101B5000E50095E64091EC00842F817040FF22C0A3
:101B60008091E80080FD1CC08091F201882391F0F3
:101B7000853091F08091EB0085FD10C04091E4002C
:101B80005091E5004217530729F39A01915011F73C
:101B900084E0089582E0089583E0089581E0089547
:101BA00080E008954091E80042FFDECF08950E9452
:101BB000450E0E944D0EE0EEF0E080818160808352
:101BC000E8EDF0E080818F77808319BCA7EDB0E06D
:101BD0008C918E7F8C9380818F7E80831092F10117
:101BE00008950F931F93CF93DF930E94450E0E9499
:101BF0004D0EC8EDD0E088818F778883888180681A
:101C0000888388818F7D888319BC1092F20110929D
:101C1000EE011092F0011092EF0100EE10E0F801D9
:101C200080818B7F808388818160888342E060E04F
:101C300080E00E94510DE1EEF0E080818E7F808394
:101C4000E2EEF0E080818160808380818860808323
:101C5000F80180818E7F8083888180618883DF9115
:101C6000CF911F910F910895E8EDF0E080818F7E74
:101C70008083E7EDF0E080818160808384E082BF33
:101C800081E08093F1010C94F10DE8EDF0E08081AA
:101C90008E7F80831092E20008951092DA001092F5
:101CA000E10008951F920F920FB60F9211242F9307
:101CB0003F934F935F936F937F938F939F93AF93D4
:101CC000BF93EF93FF938091E10082FF0BC080915F
:101CD000E20082FF07C08091E1008B7F8093E100EA
:101CE0000E94B9108091DA0080FF1FC08091D80057
:101CF00080FF1BC08091DA008E7F8093DA00809194
:101D0000D90080FF0DC080E189BD82E189BD09B4A1
:101D100000FEFDCF81E08093F2010E94B80A05C069
:101D200019BC1092F2010E94C60A8091E10080FF66
:101D300019C08091E20080FF15C08091E2008E7F83
:101D40008093E2008091E20080618093E2008091C4
:101D5000D80080628093D80019BC85E08093F2019E
:101D60000E94CA0A8091E10084FF30C08091E200A5
:101D700084FF2CC080E189BD82E189BD09B400FEE9
:101D8000FDCF8091D8008F7D8093D8008091E100B5
:101D90008F7E8093E1008091E2008F7E8093E2004D
:101DA0008091E20081608093E2008091EE018823BF
:101DB00011F084E007C08091E30087FD02C081E05C
:101DC00001C083E08093F2010E94CC0A8091E1007F
:101DD00083FF29C08091E20083FF25C08091E1004C
:101DE000877F8093E10082E08093F2011092EE0100
:101DF0008091E1008E7F8093E1008091E2008E7FF0
:101E00008093E2008091E20080618093E20042E0F2
:101E100060E080E00E94510D8091F0008860809326
:101E2000F0000E94C90AFF91EF91BF91AF919F917D
:101E30008F917F916F915F914F913F912F910F9073
:101E40000FBE0F901F9018951F920F920FB60F9212
:101E500011242F933F934F935F936F937F938F93AF
:101E60009F93AF93BF93CF93DF93EF93FF93C09173
:101E7000E900CF708091EC00D82FD17080FDD0E8C0
:101E80001092E9008091F000877F8093F0007894B1
:101E90000E94680F1092E9008091F00088608093A2
:101EA000F000CD2BCF70C093E900FF91EF91DF914F
:101EB000CF91BF91AF919F918F917F916F915F91E2
:101EC0004F913F912F910F900FBE0F901F9018953B
:101ED0001F93CF93DF93CDB7DEB7AA970FB6F894D1
:101EE000DEBF0FBECDBFE3EFF1E088E08E0F909133
:101EF000F10091938E13FBCF0E94E80A8091E800D5
:101F000083FF1FC18091F3019091F401492F50E0AC
:101F10004A30510508F015C1FA01EA5AFF4F0C94F6
:101F2000A224803881F0823809F00BC18091F7013A
:101F30008F708093E9008091EB0085FB882780F902
:101F40001092E90006C08091EF019091F00191118B
:101F500082609091E800977F9093E8008093F10071
:101F60001092F100C8C0282F2D7F09F0EAC0882305
:101F700019F0823061F0E5C08091F501813009F0FF
:101F8000E0C0933009F080E08093F0012BC0809195
:101F9000F501811127C08091F7018F7009F4D1C03C
:101FA0008093E9002091EB0020FF1CC0933021F4C6
:101FB0008091EB00806214C09091EB00906190934F
:101FC000EB0021E030E0A90102C0440F551F8A95C3
:101FD000E2F74093EA001092EA008091EB008860FB
:101FE0008093EB001092E9008091E800877F86C023
:101FF0008111A7C01091F5011F778091E3008078CF
:10200000812B8093E3008091E800877F8093E80034
:102010000E94860D8091E80080FFFCCF8091E30054
:1020200080688093E300111102C082E001C083E068
:102030008093F20186C08058823008F082C080917F
:10204000F5019091F6018C3D53E0950779F583E019
:102050008A838AE289834FB7F894DE01139620E0E1
:102060003EE051E2E32FF0E050935700E49120FF6F
:1020700003C0E295EF703F5FEF708E2F90E0EA3083
:1020800010F0C79601C0C0968D939D932F5F2431A9
:1020900049F74FBF8091E800877F8093E8006AE2AC
:1020A00070E0CE0101960E948D0C14C0AE014F5F0E
:1020B0005F4F6091F7010E94D40BBC01892B09F49A
:1020C00040C09091E800977F9093E80089819A81C1
:1020D0000E94F00C8091E8008B778093E80031C07B
:1020E000803879F58091E800877F8093E8008091BF
:1020F000EE018093F1008091E8008E778093E800F4
:102100000E94860D1EC081111CC09091F501923075
:10211000C0F48091E800877F8093E8009093EE01FF
:102120000E94860D8091EE01811106C08091E3002E
:1021300087FD02C081E001C084E08093F2010E942B
:10214000D40A8091E80083FF0AC08091E800877F6D
:102150008093E8008091EB0080628093EB00AA9668
:102160000FB6F894DEBF0FBECDBFDF91CF911F91A8
:1021700008950895CF938091F2018823A1F0C09132
:10218000E900CF709091EC00892F817090FD80E87C
:10219000C82B1092E9008091E80083FD0E94680F2F
:1021A000CF70C093E900CF9108959093760180930A
:1021B00075010895E0917501F0917601309721F055
:1021C0000190F081E02D099480E00895E09175017F
:1021D000F0917601309721F00280F381E02D09948F
:1021E0000895E0917501F0917601309721F0048017
:1021F000F581E02D099408952091730130917401C7
:102200008217930771F09093740180937301E091AA
:102210007501F0917601309721F00680F781E02D6D
:1022200009940895209171013091720182179307EA
:1022300071F09093720180937101E0917501F091BA
:102240007601309721F00084F185E02D09940895FE
:1022500008950C9428110E94811C0E9497030C94ED
:10226000431D9F92AF92BF92CF92DF92EF92FF9267
:102270000F931F93CF93DF9300D000D000D0CDB742
:10228000DEB70E94BE030DE010E0AA24A394B12C97
:10229000902E802F0E94AC04980128583E4F69016F
:1022A000F901F080F826A1F40150110988F78FEFA9
:1022B00089838A831B820E948A1C8160782F9D8378
:1022C0008C8349815A816B818D810E94C8112FC0F6
:1022D0009091DB0191FF04C08E830E94B2048E8135
:1022E00025E030E0A501022E01C0440F0A94EAF770
:1022F000E42E4F21C1F029839A828E2191E009F4C6
:1023000090E09B830E948A1C8160782F9D838C8340
:1023100049815A816B818D810E94C811F6018081AB
:10232000E826E08204C021503109E0F6BDCF0E94CA
:102330002A20109177010E94DA101817B9F00E9434
:10234000DA108093770126960FB6F894DEBF0FBEA1
:10235000CDBFDF91CF911F910F91FF90EF90DF9054
:10236000CF90BF90AF909F900C94D70926960FB650
:10237000F894DEBF0FBECDBFDF91CF911F910F91BB
:10238000FF90EF90DF90CF90BF90AF909F90089517
:10239000CF93DF93CDB7DEB72B970FB6F894DEBFA0
:1023A0000FBECDBF4F83588769877A878B87DE0141
:1023B000119686E0FD0111928A95E9F785E0FE010C
:1023C000379601900D928A95E1F749815A816B8188
:1023D0007C818D819E810E9411182B960FB6F894F6
:1023E000DEBF0FBECDBFDF91CF910895CF9388237D
:1023F00009F4C2C0C82F823859F40E94DA1081FD56
:10240000BBC089E30E94EB1A0E94B81B89E30CC091
:10241000833879F40E94DA1080FDAEC083E50E9413
:10242000EB1A0E94B81B83E50E942D1BCF910C94E0
:10243000B81B843859F40E94DA1082FD9DC087E4ED
:102440000E94EB1A0E94B81B87E4EECF8CEF8C0F32
:10245000813A48F48C2F0E946D2281118DC08C2FFF
:102460000E94EB1AE3CF80E28C0F883048F4C770EB
:1024700081E001C0880FCA95EAF70E94711BD6CF90
:102480008BE58C0F833078F4C53A29F0C63A31F0E9
:1024900083E890E005C081E890E002C082E890E027
:1024A000CF910C94FC1088E58C0F833108F064C048
:1024B000C83A39F1C93A41F1CA3A49F1CB3A51F136
:1024C000CC3A59F1CD3A61F1C03B69F1CE3A71F1A4
:1024D000CF3A79F1C13B81F1C23B89F1C33B91F124
:1024E000C43B99F1C53BA1F1C63BA9F1C73BB1F192
:1024F000C83BB9F1C93BC1F1CA3BC9F180E090E0EA
:1025000038C082EE90E035C089EE90E032C08AEEAD
:1025100090E02FC085EB90E02CC086EB90E029C0C6
:1025200087EB90E026C08CEC90E023C08DEC90E02F
:1025300020C083E891E01DC08AE891E01AC082E9DA
:1025400091E017C084E991E014C081E292E011C0EB
:1025500083E292E00EC084E292E00BC085E292E05A
:1025600008C086E292E005C087E292E002C08AE2FB
:1025700092E0CF910C941211CF910895882309F421
:102580004BC0823859F40E94DA1081FF45C089E3BC
:102590000E94EB1A0E94B81B89E30CC0833871F4C7
:1025A0000E94DA1080FF38C083E50E94EB1A0E9477
:1025B000B81B83E50E942D1B0C94B81B843859F47A
:1025C0000E94DA1082FF28C087E40E94EB1A0E9462
:1025D000B81B87E4EFCF9CEF980F913A58F390E245
:1025E000980F983050F4877091E001C0990F8A9548
:1025F000EAF7892F0E94771BDFCF9BE5980F933076
:1026000020F480E090E00C94FC10885A833120F490
:1026100080E090E00C9412110895882321F00E942C
:10262000711B0C94B81B0895882321F00E94771B1E
:102630000C94B81B08957F928F929F92AF92BF9295
:10264000CF92DF92EF92FF920F931F93CF93DF937E
:102650001F92CDB7DEB77C01C62E772EFC01058117
:1026600002950F70128111110E948E1B0E94E41AB4
:10267000882379F0112369F080E28C0D883048F0CE
:1026800082E00E94CD1A0E94E41A91E0D82ED92649
:1026900001C0D12CE72DE295EF70F0E0E05AFF4F3A
:1026A0000C94A224872D807F072D0F70882311F0B2
:1026B0000295007F112389F0002309F490C180E284
:1026C0008C0D883020F4802F0E94711B03C0802F56
:1026D0000E94811B0E94B81B82C18C2D0E94BE12D9
:1026E000002309F495C180E28C0D883020F4802FFE
:1026F0000E94771B03C0802F0E94871B0E94B81B7B
:1027000087C1972D907F872D8F70903211F0829521
:10271000807FCC2021F0F1E0CF16B1F01EC0112354
:1027200049F0002309F414C1013009F011C10E94DD
:10273000A11B6EC1002319F0013009F469C189831E
:102740000E94A41B89810AC1112321F0023008F0E4
:102750005FC1FEC001115CC101C1112321F0002342
:1027600009F4F6C03CC1002309F4F8C03EC1872D2E
:1027700086958695837090E0009719F0019761F037
:1027800047C1112321F08C2D972D937002C080E05A
:1027900090E00E94FC103CC1112321F08C2D972D5C
:1027A000937002C080E090E00E94121131C18C2D24
:1027B000112319F00E94321F02C00E949A1F0E942A
:1027C0001F2026C1872D837009F052C0111120C12E
:1027D0008C2D829586958770880F880F9C2D9F7011
:1027E000892E912CA12CB12C082E04C0880C991C88
:1027F000AA1CBB1C0A94D2F7C4FE14C00FE010E060
:1028000020E030E0B901A80104C0440F551F661F45
:10281000771F8A95D2F7CB01BA01609570958095A4
:10282000909503C060E070E0CB01272D269526959A
:10283000237030E02230310569F02330310589F012
:10284000682979298A299B292130310571F00E9454
:102850005919DEC0682979298A299B290E9475198E
:10286000D7C00E945919C501B4010E943D19D0C0BA
:10287000112319F0872D817001C08695882309F4F2
:10288000C7C08C2D829586958770880F880F9C2DE8
:102890009F70892E912CA12CB12C082E04C0880C7D
:1028A000991CAA1CBB1C0A94D2F7C4FE14C00FE0EA
:1028B00010E020E030E0B901A80104C0440F551F2A
:1028C000661F771F8A95D2F7CB01BA016095709584
:1028D0008095909503C060E070E0CB01272D269590
:1028E00026952370422F50E04230510569F0433065
:1028F000510589F0682979298A299B294130510598
:1029000071F00E94331A84C0682979298A299B2989
:102910000E944F1A7DC00E94331AC501B4010E9463
:10292000171A76C08C2D90E0FC01E05EF109E531CC
:10293000F10508F050C0E059FF4F0C94A2240C2D73
:102940000F70872D8F71112331F00E94B019802FE5
:102950000E940D135DC00E94D119802F0E94141394
:1029600057C0112339F0011153C0872D8F710E9478
:10297000F6194EC0023008F04BC0F7CF112339F0E2
:10298000872D8F710E94B01943C01123C9F3872D81
:102990008F710E94D1193CC0112329F0872D8F71AE
:1029A0000E949B1935C00E94911932C0112351F029
:1029B000172D1F71812F0E94B01963E0812F0E9493
:1029C000C41A26C081E00E94CD1A023008F182E0CC
:1029D0000E94CD1A1DC0112331F0002389F28C2DE5
:1029E0000E94F61115C0002391F28C2D0E94BE1298
:1029F0000FC0472D4F706C2DC7010E9488050E94A3
:102A0000B51806C0472D4F706C2DC7010E94E70610
:102A1000DD20F9F00E94C01A80FD1BC0F701128270
:102A20000E94BA1A0E94B019C7010E9438150E946C
:102A3000BA1A0F90DF91CF911F910F91FF90EF90F5
:102A4000DF90CF90BF90AF909F908F907F900C942D
:102A5000D1190F90DF91CF911F910F91FF90EF90BF
:102A6000DF90CF90BF90AF909F908F907F90089510
:102A70000F931F93CF93DF93EC01888199812B8172
:102A80003C81232BB9F09F3F11F48F3F99F0CE0189
:102A90000E94D705882371F0688179818A810E941C
:102AA000B61A8C010E946B1A0E943219B801CE012D
:102AB0000E941B13DF91CF911F910F9108950E94E7
:102AC0008E1B0E949E1B0E94631B0E94B81B0E94CB
:102AD000D0200E941F2080E090E00E94FC1080E047
:102AE00090E00C9412110E947E1B0C945F150E94C2
:102AF000AB1A292F22952F7030E02C3031054CF481
:102B00002A3031056CF42250310922303105A8F405
:102B100007C02C30310569F02F30310551F00DC060
:102B2000803F69F018F4803E40F409C0843F29F4E6
:102B300006C093FB882780F9089580E0089581E01E
:102B40000895CF93DF9300D000D01F92CDB7DEB7AA
:102B50000F900F900F900F900F90DF91CF910895ED
:102B6000CF93DF9300D000D000D0CDB7DEB726964C
:102B70000FB6F894DEBF0FBECDBFDF91CF910895A1
:102B80001F93CF93DF93C091860116E08091870158
:102B9000C81799F0D0E01C9FF0011D9FF00D112483
:102BA000E857FE4F40815181628173818481958114
:102BB0000E94B0152196C770E9CFDF91CF911F9188
:102BC00008954091B8015091B9016091BA01709196
:102BD000BB018091BC019091BD010C94B015809116
:102BE000BD0182958F7009F054C08091BA0188238D
:102BF00009F44FC080918601A09187016091B801CE
:102C00007091B9014091BB015091BC01B6E08A17A7
:102C100009F43FC090E041155105C1F17F3F11F427
:102C20006F3FA1F1B89FF001B99FF00D1124E85753
:102C3000FE4F218172132AC02081621327C0228196
:102C4000211124C0238134812417350710F4215029
:102C50003109241B350B283C3105C0F42091BD01FE
:102C60002F7020612093BD0126E0289FF001299F4D
:102C7000F00D1124E357FE4F80818F7080618083B7
:102C800088EB91E00E9438150C94C015019687706E
:102C9000BECF0895CF92DF92EF92FF920F931F93D2
:102CA000CF93DF93CDB7DEB762970FB6F894DEBF50
:102CB0000FBECDBF8C0185E0F801DE011D960190AD
:102CC0000D928A95E1F7D8014C9111965C9111977C
:102CD00012966C9112971396CD90DC9014973091C8
:102CE000B8017091B9018091BB019091BC0100972E
:102CF00009F46BC17F3F19F43F3F09F466C1E090CE
:102D0000BA01EE2009F4C0C02091BD01C816D90651
:102D100028F0F601E81BF90BCF0104C080959095CF
:102D20008C0D9D1DFF24F394883C910578F0F12CC7
:102D3000207F09F0C6C07C2DD98AC88A89890E9463
:102D4000A11588EB91E00E943815B1C0822F807FD9
:102D500009F046C0751314C0341312C0611110C0BD
:102D60002F7020612093BD010E94E11588EB91E056
:102D70000E9438158091BD01D80115968C932EC004
:102D8000CD2819F15F3F11F44F3FF9F0F62E611194
:102D90001CC0809186012091870136E0821709F4DA
:102DA0005AC090E0389FF001399FF00D1124E85788
:102DB000FE4F7181571306C07081471303C07281A3
:102DC000711103C001968770E9CFF62E662309F4CE
:102DD00018C18091BD0181608093BD01F12C11C1AA
:102DE000751308C0341306C0611104C08091BD0181
:102DF000D801C3C04D875E878D859E856A8B0E94F2
:102E000077156A898823E1F16623D1F12091BD010C
:102E1000822F82958F7090E0029774F08091B801B4
:102E20009091B90198878F831986DB86CA862C8793
:102E3000CE0107960E94381586E0F801A8EBB1E0B4
:102E400001900D928A95E1F70E94EF150E94E1151D
:102E5000FF24F394D6C04D875E878D859E850E94A2
:102E6000AB1A292F22952F7030E0223031050CF05B
:102E7000BCC09F7009F0B6C0805E883008F4C1C045
:102E8000C8010E943815E4CFC816D90608F453C00B
:102E9000F601E81BF90BCF01883C910508F450C0FE
:102EA000F12C7C2DD98AC88A89890E94A115E8EB6A
:102EB000F1E086E0DF011D928A95E9F70E94E115B5
:102EC000A0C0751314C0341312C0611110C08091DA
:102ED000BD01F8018583C8010E94381586E0E8EB42
:102EE000F1E0DF011D928A95E9F7FE2C8AC04D873B
:102EF0005E878D859E856A8B0E9477156A898823F7
:102F000009F4BECF662309F4BBCF2091BD01822F07
:102F100082958F7090E002970CF48ECF8091B8016B
:102F20009091B9019A8389831B82DD82CC822E83A2
:102F3000CE0101967FCF809590958C0D9D1DACCFD5
:102F4000F62E662309F49CCF75132EC034132CC0C3
:102F50002091BD0120FD1FC0822F82958F70D9F076
:102F6000D80115962C9315978F3049F08F5F982FC5
:102F70009295907F822F8F70892B15968C93C80124
:102F80000E94381586E0F801A8EBB1E001900D929F
:102F90008A95E1F793CF86E0F801A8EBB1E00190C4
:102FA0000D928A95E1F72DC04D875E878D859E85B0
:102FB0000E947715811140CF8091BD01816080937F
:102FC000BD01C8010E9438151CC0662309F458CF02
:102FD0004D875E878D859E850E947715882309F42D
:102FE0004FCF2ACF811148CF0CC0243031050CF0CF
:102FF00047CF9F7009F440CFF8019581907F09F089
:103000003BCF8F2D62960FB6F894DEBF0FBECDBFBB
:10301000DF91CF911F910F91FF90EF90DF90CF90B4
:1030200008951F93CF93DF93CDB7DEB72C970FB6DC
:10303000F894DEBF0FBECDBF4F83588769877A876C
:103040008B879C87CE0107960E944A16882369F0D9
:103050008F8198852A853B85232BF1F19F3F09F0CD
:1030600063C08F3F09F060C037C086E0FE0137962D
:10307000DE01119601900D928A95E1F76F817885B6
:10308000EA85FB85309741F17F3F11F46F3F21F1D5
:103090002091870130E0C9010196877099274091FE
:1030A000860150E08417950709F447C069837A8345
:1030B000FD83EC8396E0929FD001939FB00D112485
:1030C000A857BE4FFE01319601900D929A95E1F7F7
:1030D000809387010E94C01516E08091860190912F
:1030E00087018917C1F1189FC001112488579E4F8D
:1030F0000E944A16882379F1E09186011E9FF00113
:103100001124E857FE4F408151816281738184818F
:1031100095810E94B0158091860190E0019687709C
:10312000992780938601D9CF4F81588569857A8503
:103130008B859C850E94B015CFCF0E94731510928D
:10314000870110928601E8EBF1E086E0DF011D9235
:103150008A95E9F7C1CF2C960FB6F894DEBF0FBE63
:10316000CDBFDF91CF911F910895EF92FF920F9302
:103170001F93CF93DF938C01892B09F46CC0F12C42
:10318000EE24E394E8012196F8018491843740F419
:10319000843008F051C0813081F0823019F15BC079
:1031A000853709F444C0A8F19CE7980F903708F0E0
:1031B00052C08F770E94BE1241C00E5F1F4FFE01AA
:1031C000C49180E28C0F883048F4C7708E2D01C006
:1031D000880FCA95EAF70E94911B14C08C2F0E9499
:1031E000F6112DC00E5F1F4FFE01C49180E28C0FBF
:1031F000883058F4C7708E2D01C0880FCA95EAF741
:103200000E94971B0E94B81B1AC08C2F0E94BE12EE
:1032100016C00E5F1F4FFE01C491CC2381F08FE9D1
:103220009FE00197F1F700C00000C150F6CF0E5F9C
:103230001F4FFE01F49003C00E94F6118E018F2DE6
:10324000882309F49FCFEFE9FFE03197F1F700C041
:1032500000008150F5CFDF91CF911F910F91FF902A
:10326000EF90089508956093C2017093C301809315
:10327000C4019093C5010C945F150F931F930091A7
:10328000C2011091C3012091C4013091C501DC013C
:10329000CB01802B912BA22BB32B8093C201909357
:1032A000C301A093C401B093C5011F910F910C9469
:1032B0005F150F931F930091C2011091C3012091DC
:1032C000C4013091C501DC01CB0180239123A223ED
:1032D000B3238093C2019093C301A093C401B09320
:1032E000C5011F910F910C945F150F931F930091CF
:1032F000C2011091C3012091C4013091C501DC01CC
:10330000CB0180279127A227B3278093C2019093F6
:10331000C301A093C401B093C5011F910F910C94F8
:103320005F151092BE011092BF011092C001109261
:10333000C1010C945F1541E050E060E070E004C012
:10334000440F551F661F771F8A95D2F74093BE0121
:103350005093BF016093C0017093C1010C945F153D
:1033600041E050E060E070E004C0440F551F661F6C
:10337000771F8A95D2F78091BE019091BF01A091ED
:10338000C001B091C101482B592B6A2B7B2B409374
:10339000BE015093BF016093C0017093C1010C94B2
:1033A0005F1541E050E060E070E004C0440F551F3D
:1033B000661F771F8A95D2F7409550956095709556
:1033C0008091BE019091BF01A091C001B091C10157
:1033D000482359236A237B234093BE015093BF01A6
:1033E0006093C0017093C1010C945F1541E050E0FF
:1033F00060E070E004C0440F551F661F771F8A9578
:10340000D2F78091BE019091BF01A091C001B0910F
:10341000C101482759276A277B274093BE01509353
:10342000BF016093C0017093C1010C945F150F93AD
:103430001F930091BE011091BF012091C0013091F6
:10344000C101DC01CB01802B912BA22BB32B8093EC
:10345000BE019093BF01A093C001B093C1011F9121
:103460000F910C945F150F931F930091BE01109163
:10347000BF012091C0013091C101DC01CB0180234B
:103480009123A223B3238093BE019093BF01A09305
:10349000C001B093C1011F910F910C945F150F9360
:1034A0001F930091BE011091BF012091C001309186
:1034B000C101DC01CB0180279127A227B32780938C
:1034C000BE019093BF01A093C001B093C1011F91B1
:1034D0000F910C945F150895CF92DF92EF92FF92B7
:1034E0000F931F93CF93DF938C01C090C201D090B4
:1034F000C301E090C401F090C5018091BE0190919C
:10350000BF01A091C001B091C101C82AD92AEA2AFD
:10351000FB2ACFE1D0E0D701C6010C2E04C0B6953E
:10352000A795979587950A94D2F780FF06C0B801B2
:103530008C2F0E943C09019721F4219760F780E0CD
:1035400001C08C2FDF91CF911F910F91FF90EF90D1
:10355000DF90CF900895CF93DF93EC010E946C1A17
:10356000BE010E943C09DF91CF910895CB010E94DA
:10357000AB1A08958091C601859585958595089526
:103580008091C6018770089598E0899F9001112469
:10359000262B2093C6010C94B0192091C60180956A
:1035A00082238093C601982F977069F430E0482FEA
:1035B000552747FD50952417350729F085958595A2
:1035C00085950C94D11908959091C601977081E06A
:1035D00009F480E0089590910C01992321F09091D5
:1035E0000D01911109C020910E0130910F01F901D7
:1035F00032969FEF40E01FC0982F9695969596952E
:103600009F3050F5E0910E01F0910F01E90FF11D8F
:10361000877021E030E0A90102C0440F551F8A9550
:10362000E2F7CA019181892B818308959F3F39F088
:103630004F5F4E3041F051915813F8CF0DC05111EA
:10364000F7CF942FF5CF9F3F39F0F901E90FF11D26
:1036500097FDFA9582830895089590910C0199231E
:1036600021F090910D01911109C020910E0130912E
:103670000F01F9013296205F3F4F1FC0982F96959A
:10368000969596959F30F0F4E0910E01F0910F0120
:10369000E90FF11D877021E030E0A90102C0440F5D
:1036A000551F8A95E2F7CA0180959181892381830C
:1036B00008953196E217F30729F090819813F9CF16
:1036C0001082F7CF089581E090E0E0910E01F09133
:1036D0000F01E80FF91F1082019680319105A9F7BB
:1036E00008959091DA01892B8093DA0108958095ED
:1036F0009091DA0189238093DA0108951092DA011A
:1037000008959091D901892B8093D90108958095CE
:103710009091D90189238093D90108951092D901FC
:1037200008959091D801892B8093D80108958095B0
:103730009091D80189238093D80108951092D801DF
:1037400008958093C70108951092C701089580914C
:103750000E0190910F01FC0131969C01205F3F4FBB
:1037600080E0919191118F5FE217F307D1F70895EF
:10377000E0910E01F0910F018091DA018083E091D8
:103780000E01F0910F0190818091D901892B8083E6
:10379000E0910E01F0910F0190818091D801892B69
:1037A00080838091C701882361F0E0910E01F09140
:1037B0000F019081892B80830E94A71B8111109299
:1037C000C70180910E0190910F010C94E61020E04A
:1037D000009739F0AC0141505109842395232F5FA4
:1037E000F7CF822F0895CF92DF92EF92FF926C0174
:1037F000EE24FF24C114D104E104F10421F0C70137
:10380000B60120E101C020E0C72ED82EE92EFF240A
:10381000C114D104E104F10419F0285FC701B60115
:103820006B017C0154E0F694E794D794C7945A95C1
:10383000D1F7C114D104E104F10419F02C5FC701E0
:10384000B6016B017C0142E0F694E794D794C794EB
:103850004A95D1F7C114D104E104F10419F02E5FA7
:10386000C701B601DC01CB01B695A7959795879561
:10387000892B8A2B8B2B09F02F5F822FFF90EF90E3
:10388000DF90CF9008958091F201843021F1109261
:10389000DC0120E488E190E00FB6F894A8958093CD
:1038A00060000FBE2093600080E00E94D70983B7BC
:1038B000817F846083BF83B7816083BF789488955C
:1038C00083B78E7F83BF88E10FB6F8948093600042
:1038D000109260000FBE089508950E94AB030E94ED
:1038E000BE030E946C1C0E94B30491E0811101C0D0
:1038F00090E0892F08950E9473150E94DA100C94AD
:10390000D70982E084BD93E095BD9AEF97BD80937F
:103910006E0008952FB7F8948091DD019091DE013B
:10392000A091DF01B091E0012FBF0895CF92DF9207
:10393000EF92FF920F931F932FB7F8944091DD0100
:103940005091DE016091DF017091E0012FBF6A01AB
:103950007B01EE24FF248C0120E030E0C016D1066C
:10396000E206F30610F4415051099A01281B390B65
:10397000C9011F910F91FF90EF90DF90CF900895B4
:103980001F920F920FB60F9211248F939F93AF93B4
:10399000BF938091DD019091DE01A091DF01B09194
:1039A000E0010196A11DB11D8093DD019093DE0120
:1039B000A093DF01B093E001BF91AF919F918F91F0
:1039C0000F900FBE0F901F9018950E94D70DF8947E
:1039D0002FEF87EA91E6215080409040E1F700C048
:1039E000000087E090EBDC018093FC019093FD01E7
:1039F000A093FE01B093FF019CE088E10FB6F8941C
:103A0000A895809360000FBE90936000FFCFEF9267
:103A1000FF920F931F93CF93DF93D82FCDE08C2F7E
:103A20000E94AC0405E010E0E82EF12CC701002E46
:103A300002C0959587950A94E2F780FF09C0602F30
:103A40007C2F80E00E94E806D81302C081E006C007
:103A50000150110958F7C15010F780E0DF91CF9164
:103A60001F910F91FF90EF900895CF93C82F8CE294
:103A70000E94071D882321F08C2FCF910C94071DE5
:103A800080E0CF910895CF930E948A1E811102C0D9
:103A90000E94701EC5E6C15049F00E94BE038FE32C
:103AA0009CE90197F1F700C00000F5CF89E20E9480
:103AB000351D811113C18AE20E94351D81110E94BA
:103AC000701E85E00E94351D81110E94E51C0E9438
:103AD000951E8093DB0187E00E94351D8823A9F1A4
:103AE0008BE10E94351D882351F08091DB0181FB21
:103AF000222720F991E0922790FB81F90EC08EE0F9
:103B00000E94351D882361F08091DB0182FB222712
:103B100020F991E0922790FB82F98093DB0115C098
:103B200080E10E94351D9091DB01882341F093FBD9
:103B3000222720F981E0822780FB93F904C0892F96
:103B4000809580FB90F99093DB018091DB010E94CE
:103B5000991E0E94A71E8093FB0180EE0E94351DD6
:103B6000882341F08091FB01982F909590FB80F97C
:103B70008093FB0189E30E94351D882359F08091D1
:103B8000FB0181FB222720F991E0922790FB81F92C
:103B90008093FB0182EE0E94351D882359F08091AD
:103BA000FB0182FB222720F991E0922790FB82F90A
:103BB0008093FB0186EE0E94351D882359F0809189
:103BC000FB0183FB222720F991E0922790FB83F9E8
:103BD0008093FB0183EE0E94351D882359F080916C
:103BE000FB0184FB222720F991E0922790FB84F9C6
:103BF0008093FB0185E30E94351D882359F0809155
:103C0000FB0185FB222720F991E0922790FB85F9A3
:103C10008093FB0181E30E94351D882359F0809138
:103C2000FB0186FB222720F991E0922790FB86F981
:103C30008093FB0181E10E94351D882359F080911A
:103C4000FB0187FB222720F991E0922790FB87F95F
:103C50008093FB018091FB010E94AB1E8091FB01D0
:103C600087FB882780F980930D0187E20E94351D2C
:103C7000C82F8EE10E94351D8111C2608FE10E9424
:103C8000351D8111C46080E20E94351D8111C8601C
:103C900081E20E94351D8111C06182E20E94351DC2
:103CA0008111C06283E20E94351D8111C06484E2EB
:103CB0000E94351D882311F0C06802C0CC2329F072
:103CC0008C2F0E94A21E6C2F03C00E949E1E682F84
:103CD00070E080E090E0CF910C943319CF9108957B
:103CE0006DEE7EEF80E090E00E94DC2460E082E0F8
:103CF00090E00E94CA2460E083E090E00E94CA2421
:103D000060E084E090E00E94CA2460E085E090E0FA
:103D10000C94CA2480E090E00E94C42421E08D3EEF
:103D20009E4F09F020E0822F089582E090E00C94ED
:103D3000BC24682F82E090E00C94CA2483E090E0D9
:103D40000C94BC24682F83E090E00C94CA2484E097
:103D500090E00C94BC24682F84E090E00C94CA247A
:103D60008091E30180FF0BC06091130185E0689FA3
:103D7000B001112475956795759567952BC081FFE6
:103D800009C06091130185E0689FB0011124759509
:103D9000679520C082FF07C06091130185E0689F8E
:103DA000B001112417C09091E4019923D1F06091E2
:103DB0001201961788F72091130185E0289F900142
:103DC0001124929FA001939F500D112470E0CA010D
:103DD0000E948E246038710540F46115710539F038
:103DE00002C065E070E0862F08958FE7089581E0B6
:103DF00008958091E30180FF08C06091110170E097
:103E0000759567957595679521C081FF06C060918E
:103E1000110170E07595679519C082FF04C060912B
:103E2000110170E010C09091E4019923C1F06091FC
:103E300010019617A0F780911101899FC0011124EC
:103E400070E00E948E246038710528F461157105B8
:103E500021F0862F08958FE7089581E0089561E0AD
:103E600070E0F4CF803F21F40E94B01E819504C021
:103E7000813F29F40E94B01E8093E7010895823F9C
:103E800021F40E94B01E819504C0833F29F40E9452
:103E9000B01E8093E6010895893F19F40E94F91E2F
:103EA00005C08A3F31F40E94F91E81958093E80194
:103EB00008958B3F21F40E94F91E819504C08C3F28
:103EC00029F40E94F91E8093E9010895843F21F4AA
:103ED0008091E501816017C0853F21F48091E50163
:103EE000826011C0863F21F48091E50184600BC09F
:103EF000873F21F48091E501886005C0883F31F457
:103F00008091E50180618093E50108958D3F21F462
:103F10008091E30181600BC08E3F21F48091E30129
:103F2000826005C08F3F29F48091E3018460809313
:103F3000E3010895803F39F48091E70187FF6CC069
:103F40001092E70169C0813F29F48091E7011816BA
:103F5000BCF362C09091E601823F29F497FF5CC0F8
:103F60001092E60159C0833F19F41916CCF354C0DE
:103F7000893F41F48091E80118160CF04DC0109271
:103F8000E8014AC08A3F29F48091E80187FF44C0D4
:103F9000F6CF8B3F39F48091E90187FF3DC0109245
:103FA000E9013AC08C3F29F48091E9011816BCF36D
:103FB00033C0843F21F48091E5018E7F17C0853F97
:103FC00021F48091E5018D7F11C0863F21F480911D
:103FD000E5018B7F0BC0873F21F48091E501877F4E
:103FE00005C0883F31F48091E5018F7E8093E50123
:103FF00013C08D3F21F48091E3018E7F0BC08E3F73
:1040000021F48091E3018D7F05C08F3F29F48091D9
:10401000E3018B7F8093E3018091E60181110EC063
:104020008091E70181110AC08091E801811106C0E9
:104030008091E901811102C01092E401089585EE9A
:1040400091E00E94F1100E948A1C9093E2018093FB
:10405000E10108951F93CF93DF938091E101909147
:10406000E2010E94961CAC019091E401992321F099
:104070002091140130E006C0209115018AE0289FAC
:10408000900111244217530708F486C08091E6017D
:10409000C091E701D091E8011091E901811107C0B9
:1040A000C11176C0D11174C0111172C075C09F3F8B
:1040B00019F09F5F9093E401181624F40E94B01E3B
:1040C0008093E6018091E60187FF05C00E94B01E43
:1040D00081958093E6011C1624F40E94B01E809303
:1040E000E7018091E70187FF05C00E94B01E81951E
:1040F0008093E7016091E601662339F1C091E70101
:10410000CC2319F1772767FD7095872F972F0E9491
:104110009F2323E333E343E35FE30E9403240E94EE
:104120006C236093E6016C2F772767FD7095872FCE
:10413000972F0E949F2323E333E343E35FE30E942F
:1041400003240E946C236093E7011D1624F40E944F
:10415000F91E8093E8018091E80187FF05C00E9465
:10416000F91E81958093E801111624F40E94F91E2E
:104170008093E9018091E90187FF05C00E94F91E43
:1041800081958093E901DF91CF911F910C941F20BD
:104190009F3F09F08ECF96CFDF91CF911F91089569
:1041A000E5EEF1E085E0DF011D928A95E9F71092D6
:1041B000E4011092E3010895833081F128F4813005
:1041C00059F08230D1F00895853009F449C0B8F132
:1041D000863009F456C0089580911501262F30E0ED
:1041E000280F311D2F3F310524F4680F609315010E
:1041F00008958FEF80931501089580911401262F63
:1042000030E0280F311D2F3F310524F4680F6093F3
:10421000140108958FEF8093140108958091130184
:10422000262F30E0280F311D2F3F310524F4680F71
:104230006093130108958FEF809313010895809187
:104240001201262F30E0280F311D2F3F310524F4B5
:10425000680F6093120108958FEF80931201089503
:1042600080911101262F30E0280F311D2F3F31059D
:1042700024F4680F6093110108958FEF809311016A
:10428000089580911001262F30E0280F311D2F3F17
:10429000310524F4680F6093100108958FEF809327
:1042A00010010895833011F128F4813049F08230F3
:1042B00091F00895853081F120F18630C1F10895A3
:1042C00080911501681720F4861B809315010895CD
:1042D00010921501089580911401681720F4861B2F
:1042E0008093140108951092140108958091130190
:1042F000681720F4861B8093130108951092130110
:10430000089580911201681720F4861B8093120192
:10431000089510921201089580911101681720F4F8
:10432000861B8093110108951092110108958091C8
:104330001001681720F4861B8093100108951092D5
:10434000100108950F931F938D3109F46BC008F08D
:104350003FC08E3009F47FC0C0F4873009F469C0D3
:1043600068F4863009F0B1C08091DB01817F8E7FD7
:104370008093DB0181E08093EB01A8C0883009F4D1
:10438000A2C08B3009F49FC0A0C0863109F49BC045
:1043900078F4803109F472C0813109F096C00E942E
:1043A000731590910D0181E0892780930D018BC0D9
:1043B000893109F488C08B3109F087C08091DB0115
:1043C00081FB222720F991E0922790FB81F94CC0D4
:1043D000853309F470C048F4873209F46CC008F4DE
:1043E00059C0893209F467C070C0833438F48A3305
:1043F00008F04EC0883309F466C067C0833409F4FE
:104400005AC0883409F061C00E9473150FEF13ED94
:1044100020E3015010402040E1F700C000000E945E
:10442000E51C51C00E9426230E94DA100E94D70981
:104430004AC09091DB01892F8095817080FB90F9B3
:1044400029F0966098609093DB0140C0997F977F38
:104450009093DB0138C08091DB0182FB222720F999
:1044600091E0922790FB82F98093DB01992359F127
:104470008091DB0181608093DB0125C08091DB01AD
:1044800083FB222720F991E0922790FB83F9ECCF60
:10449000895301C08D5141E050E060E070E08A0135
:1044A0009B0104C0000F111F221F331F8A95D2F7F2
:1044B000C901B80104C061E070E080E090E00E94B2
:1044C00033190E94731581E001C080E01F910F91A4
:1044D000089580E0089580E00895CF93C82F8091DB
:1044E000EB01813079F018F08230E9F187C0E0917A
:1044F0000E01F0910F018081813169F0823209F063
:104500007FC009C0E0910E01F0910F0180818131DF
:1045100011F0823261F48C2F0E946922811104C053
:104520008C2F0E94A2211DC081E090E01AC08C2F28
:104530000E946B22811114C0C43179F048F4CB3051
:1045400079F0C03109F060C082E08093EB0108C0CF
:10455000C93219F0C83321F057C01092EB0154C092
:1045600081E0817053C0C93289F118F5C43171F10D
:10457000A8F4C73009F046C08AE08093150194E1A1
:104580009093140193E0909313018093120188E0BB
:104590008093110188E28093100134C0CE51C6305F
:1045A00088F5EC2FF0E0E65DFE4F80818093EA0114
:1045B00029C0CE34E9F020F4CB3421F56AE013C0F1
:1045C000C13579F0C235F1F461E00DC08091EA01A6
:1045D000882319F01092EA0115C081E08093EB0165
:1045E00015C061E006C08091EA010E94DC200AC08B
:1045F0006AE08091EA010E94522104C01092EB010E
:1046000080E004C081E002C080E0ABCFCF9108958C
:10461000E1E8F0E080818860808380818160808330
:104620008FB7F89493E09093890090ED9093880071
:104630008FBF0895EFE6F0E0808182608083089567
:10464000EFE6F0E080818D7F80830895EFE6F0E073
:10465000908182E08927808308951F920F920FB680
:104660000F9211242F933F934F935F936F937F93F8
:104670008F939F93AF93BF93EF93FF938091EC0140
:104680009091ED0101969093ED018093EC018111E1
:1046900003C082E00E94D709E091ED01E695E6951E
:1046A000F0E0E259FA4FE4918091EC018E1303C0DF
:1046B00080E00E94D709FF91EF91BF91AF919F9148
:1046C0008F917F916F915F914F913F912F910F90BB
:1046D0000FBE0F901F90189504D06894B1118DC033
:1046E000089570D088F09F5790F0B92F9927B7514F
:1046F000A0F0D1F0660F771F881F991F1AF0BA95A6
:10470000C9F712C0B13081F077D0B1E0089574C01C
:10471000672F782F8827B85F39F0B93FCCF386959B
:1047200077956795B395D9F73EF4909580957095F8
:1047300061957F4F8F4F9F4F0895E89409C097FB75
:104740003EF490958095709561957F4F8F4F9F4F68
:104750009923A9F0F92F96E9BB279395F6958795AC
:1047600077956795B795F111F8CFFAF4BB0F11F46F
:1047700060FF1BC06F5F7F4F8F4F9F4F16C0882316
:1047800011F096E911C0772321F09EE8872F762F4C
:1047900005C0662371F096E8862F70E060E02AF08D
:1047A0009A95660F771F881FDAF7880F9695879579
:1047B00097F9089557FD9058440F551F59F05F3FE2
:1047C00071F04795880F97FB991F61F09F3F79F033
:1047D00087950895121613061406551FF2CF4695B5
:1047E000F1DF08C0161617061806991FF1CF869537
:1047F0007105610508940895E894BB27662777271B
:10480000CB0197F908950BD078C069D028F06ED00D
:1048100018F0952309F05AC05FC01124EECFCADF0B
:10482000A0F3959FD1F3950F50E0551F629FF001C3
:10483000729FBB27F00DB11D639FAA27F00DB11D1C
:10484000AA1F649F6627B00DA11D661F829F2227A5
:10485000B00DA11D621F739FB00DA11D621F839F2C
:10486000A00D611D221F749F3327A00D611D231F02
:10487000849F600D211D822F762F6A2F11249F5750
:1048800050408AF0E1F088234AF0EE0FFF1FBB1F73
:10489000661F771F881F91505040A9F79E3F510512
:1048A00070F014C0AACF5F3FECF3983EDCF386951E
:1048B00077956795B795F795E7959F5FC1F7FE2BBD
:1048C000880F911D9695879597F9089597F99F6799
:1048D00080E870E060E008959FEF80EC0895002488
:1048E0000A941616170618060906089500240A9455
:1048F00012161306140605060895092E0394000CDB
:1049000011F4882352F0BB0F40F4BF2B11F460FF69
:1049100004C06F5F7F4F8F4F9F4F089597FB072E07
:1049200016F4009407D077FD09D00E94A82407FC54
:1049300005D03EF4909581959F4F089570956195AF
:104940007F4F0895EE0FFF1F0590F491E02D09941D
:10495000AA1BBB1B51E107C0AA1FBB1FA617B707A5
:1049600010F0A61BB70B881F991F5A95A9F78095C1
:104970009095BC01CD010895F999FECF92BD81BDFE
:10498000F89A992780B50895A8E1B0E042E050E098
:104990000C94E424262FF999FECF92BD81BDF89A9C
:1049A000019700B4021639F01FBA20BD0FB6F89473
:1049B000FA9AF99A0FBE08950196272F0E94CB24E8
:1049C0000C94CA24DC01CB01FC01F999FECF06C08E
:1049D000F2BDE1BDF89A319600B40D9241505040BD
:0849E000B8F70895F894FFCF29
:1049E8000220D909670A440A100ADC090101C80132
:1049F80028080A03140A404D36392E05E104AB0491
:104A0800720405041E043704500401020304050659
:044A18000708090082
:00000001FF
