:100000000C94A8020C94EF020C94EF020C94EF02F3
:100010000C94EF020C94EF020C94EF020C94EF029C
:100020000C94EF020C94EF020C94210E0C94F40E3D
:100030000C94EF020C94EF020C94EF020C94EF027C
:100040000C94EF020C9402230C94EF020C94EF0238
:100050000C94EF020C94AC1C0C94EF020C94EF0285
:100060000C94EF020C94EF020C94EF020C94EF024C
:100070000C94EF020C94EF020C94EF020C94EF023C
:100080000C94EF020C94EF020C94EF020C94EF022C
:100090000C94EF020C94EF020C94EF020C94EF021C
:1000A0000C94EF020C94EF020C94EF0201E1014D6D
:1000B000024D02E101E00106020602E0000000F04C
:1000C000A11E002B00E000E100004100001F001411
:1000D0000004001D0000004C0020001A0016001B48
:1000E0000029002A002100080007000600E3002C78
:1000F0000022001500090019009174280023001740
:10010000000A00050000006500290028000000002A
:100110007F00002900025401540000050000005037
:100120000024001C000B00110000004F00250018E7
:10013000000D0010009000520026000C000E00364A
:100140000030002800270012000F00370031002A7D
:10015000002D00130033003800890051002E002FBD
:100160000034710171004100003A000100010001FA
:1001700000010000003B000100010001000100FA45
:10018000003C000100F20001000100F5003D00F01C
:1001900000F10001000100F4003E000100F3000145
:1001A000000100F9003F000100010001000000FB18
:1001B0000001000100000001000000FC003F000100
:1001C000000000010000004A0040005200510024DD
:1001D0000200004D004100240021001E0027004BBA
:1001E000004200250022001F0000000100430026FD
:1001F000002300200037000100440025022E0231B8
:10020000002E004E004500450001000100010000E5
:100210000000500100280001000100000001000161
:10022000004A008B00010001000100520051008AC9
:10023000000100010001004D004F00880001000195
:1002400000A8000100B300B20001000100AA0001F3
:10025000000B00B10000000100A900010000000136
:100260000000000100010001000000010000000189
:1002700000010001005000010000000100010049E0
:1002800000510001300F08010001004600520049F2
:100290000201000100010001004F00490101004C72
:1002A000050100480030020100010029032A003046
:1002B000023102E5004C0000002E002F00340087C0
:1002C00000010000002D0013003300380001000180
:1002D00000270012000F0037000100010026000C6B
:1002E000000E00360001000100250018000D00106E
:1002F000000100010024001C000B0011000000019F
:1003000000230001000000010000000100010001C5
:1003100000000001000000010001000100010001D7
:10032000000000010001003A003E0042000100010F
:100330000001003B003F0043000100010001003CC0
:1003400000400044000100010001003D0041004563
:100350000001000100010001000100010001000096
:100360000016034500720067006F0044006F0078BC
:1003700000200045005A0000001603450072006787
:10038000006F0044006F007800200045005A000014
:10039000000403090409026D00040100A0FA090425
:1003A00000000103010100092111010001224000A8
:1003B0000705810308000A09040100010301020086
:1003C000092111010001224D000705820308000ADE
:1003D00009040200010300000009211101000122AB
:1003E00036000705830308000A090403000103001F
:1003F00000000921110100012239000705840310C2
:1004000000011201100100000008EDFE07130100B9
:100410000102000105010906A101050719E029E70C
:1004200015002501950875018102050819012905A6
:100430009505750191029501750391010507190054
:10044000297715002501957875018102C0050109FC
:1004500080A101850216010026B7001A01002AB703
:1004600000751095018100C0050C0901A1018503EB
:10047000160100269C021A01002A9C0275109501A3
:100480008100C005010902A1010901A100050919A6
:100490000129051500250195057501810295017554
:1004A0000381010501093009311581257F95027508
:1004B00008810609381581257F9501750881060593
:1004C0000C0A38021581257F950175088106C0C088
:1004D00005010906A101050719E029E71500250115
:1004E00095087501810295017508810105081901BA
:1004F000290595057501910295017503910105077F
:10050000190029FF150026FF00950675088100C017
:100510000000000000000000000000010204060AC4
:100520000F17202C3A4A5D71879DB3C7DAE9F5FCB5
:10053000FFFCF5E9DAC7B39D87715D4A3A2C2017B5
:100540000F0A060402010000000000000000000085
:1005500011241FBECFEFDAE0DEBFCDBF04B603FE2D
:1005600027C08091FC019091FD01A091FE01B09106
:10057000FF018730904BA740B04BD1F41092FC01A3
:100580001092FD011092FE011092FF0114BE84B77B
:10059000877F84BF0FB6F894A8958091600088612A
:1005A00080936000109260000FBEE0E0FFE30995C9
:1005B00011E0A0E0B1E0E0EBF9E402C005900D929B
:1005C000A433B107D9F721E0A4E3B1E001C01D9243
:1005D000AC3FB207E1F70E94710B0C94D6240C9447
:1005E00000001092B9008AE08093B800089594EA60
:1005F0009093BC009091BC0097FFFCCF9091B90004
:10060000987F983021F0903111F081E00895809327
:10061000BB0084E88093BC008091BC0087FFFCCFC6
:100620008091B900887F883111F0803471F780E0C3
:10063000089584E98093BC008091BC0084FDFCCFC8
:1006400008958093BB0084E88093BC008091BC0037
:1006500087FFFCCF9091B900987F81E0983209F430
:1006600080E0089584E88093BC008091BC0087FFFF
:10067000FCCF8091BB00089580B38C7080BB81B3A8
:10068000836F81BB089580910101811115C080E4C1
:100690000E94F7028093010181110CC082E10E9447
:1006A000210380930101811105C08FEF0E94210376
:1006B000809301010E94190384B1807F84B985B1C0
:1006C000807F85B98AB1837F8AB98BB1837F8BB9EB
:1006D0003E98469808950E940E05809301010E945D
:1006E00043030E943C03E3E4F1E0A5E3B1E011928F
:1006F0001D9281E0E135F807D1F70C94F8040E94CF
:100700000E05809301010E9443030E943C03E3E431
:10071000F1E0A5E3B1E011921D9281E0E135F80727
:10072000D1F70895AF92BF92CF92DF92EF92FF92EE
:100730000F931F93CF93DF9380910101882379F06A
:10074000809134018F5F80933401811108C00E9431
:100750000E0580930101811102C00E94A00485E36F
:10076000C82E81E0D82E760100E010E0D2E0AA2465
:10077000A394B12C073008F06EC080910101811163
:100780001BC080E40E94F70280930101811112C016
:1007900082E10E9421038093010181110BC0C501F8
:1007A000002E01C0880F0A94EAF780950E94210369
:1007B000809301010E941903C0910101C11193C0EE
:1007C00080E40E94F70280930101811112C083E14D
:1007D0000E9421038093010181110BC081E40E94DA
:1007E000F70280930101811104C00E943203C82FD7
:1007F000C0950E941903D7018C918C1719F0CC93E6
:10080000D09300010E9443030F5F1F4FBFEFEB1A0D
:10081000FB0A0E30110509F0ADCF8091000188234D
:1008200061F0815080930001882309F45EC0EFE9F4
:10083000FFE03197F1F700C000000E949E0481E0C4
:10084000DF91CF911F910F91FF90EF90DF90CF90AC
:10085000BF90AF9008950A30F1F078F40830A9F015
:100860000930B1F0209A2898E0EAEA95F1F78FB1C3
:100870008095799B18C090E017C00C3091F070F013
:100880000D3081F73E9A4698EFCF219A2998ECCF08
:10089000229A2A98E9CF239A2B98E6CF529A5B980E
:1008A000E3CF539AFCCF92E0C82FC170C92B7C9B39
:1008B00014C080E0C82B7D9B12C080E0C82B7E9BBB
:1008C00010C080E0C82B8FB18095881F8827881FB3
:1008D0008295880F807EC82B8ECF84E0EBCF88E096
:1008E000EDCF80E1EFCFC0E086CFE3E4F1E0D601C9
:1008F0008D916D018193B3E4CB16B1E0DB06B9F7BE
:100900009CCFE82FF0E0ED5BFE4F808108950895C5
:100910000F931F93CF9303E411E0C0E0F80181919E
:100920008F0190E00E94D31BC80FF1E001351F0733
:10093000A9F78C2FCF911F910F9108950C947A05F0
:1009400056985E9825982D9826982E9827982F9837
:100950008FEF90E0909389008093880090938B00B4
:1009600080938A0090938D0080938C00259A2D9A15
:100970002FEF80E792E0215080409040E1F700C0E7
:100980000000269A2E9A2FEF80E792E021508040B7
:100990009040E1F700C00000279A2F9A2FEF80E7E0
:1009A00092E0215080409040E1F700C0000025987F
:1009B0002D982FEF80E792E0215080409040E1F7A2
:1009C00000C0000026982E982FEF80E792E021507B
:1009D00080409040E1F700C0000027982F9856987B
:1009E0005E9825982D9826982E9827982F980895E8
:1009F00089EA8093800089E08093810024982C9874
:100A00003F988AB18F748AB96E98479A8BB1806B80
:100A10008BB9769A0E94A0040C94790580E28093A9
:100A200001018091510181110EC00E94F10281E00B
:100A3000809351012FEF83ED90E32150804090404F
:100A4000E1F700C0000080E40E94F70280930101FA
:100A500081112EC00E94210380930101811128C0C1
:100A60000E94210380930101811122C08FE30E9423
:100A700021038093010181111BC00E94190380E4AE
:100A80000E94F70280930101811112C08CE00E9444
:100A900021038093010181110BC00E9421038093E7
:100AA0000101811105C08FE30E94210380930101A0
:100AB0000E941903809101010895662329F0613095
:100AC00079F080E090E00895FC018281882321F094
:100AD00085EE0E94C411F5CF85EE0E948C12F1CFF5
:100AE000FC018281882369F3269A2E9A8CEA90E091
:100AF000089508956091BF017091C0018091C10176
:100B00009091C2010E94DF1B56985E9825982D98FF
:100B100026982E9827982F98813019F0823021F04E
:100B20000895259A2D9A0895279A2F9A089581302D
:100B30009147C9F4FB018281882339F01092520158
:100B400081EE0E94C41180E0089581EE0E948C1213
:100B5000809152018111F7CF87E80E94C41187E884
:100B60000E948C12F0CF81E080935201089581E0C1
:100B700008950C9497050895882339F090E08A3001
:100B800010F44D9608950697089587E290E0089531
:100B9000AF92BF92DF92EF92FF920F931F93CF938A
:100BA000DF938C01FC01C081D181CE010E945D1ACE
:100BB000BE010E94DC06EC01B8010E94B905882341
:100BC00039F1F8018281882309F4E0C080915F0146
:100BD000811129C0C431F0E5DF0709F0D1C00E94BE
:100BE000BB0581E080935F010E94761C90935E01BB
:100BF00080935D0110925601109258011092570196
:100C000010925A011092590110925C0110925B01EE
:100C100080E0DF91CF911F910F91FF90EF90DF90D7
:100C2000BF90AF90089580915D0190915E010E9408
:100C3000821C883C910570F480915601E82FF0E009
:100C4000EE0FFF1FE95AFE4FD183C0838F5F809361
:100C50005601DECFC13080E8D807B8F1F8018281B3
:100C6000882309F498C05E01E894B7F88091550193
:100C7000813009F447C008F441C0823009F44FC004
:100C80008CE0E82EF12CC5010E2C02C096958795BC
:100C90000A94E2F78F700E94BC05D82E0E94C411FE
:100CA0008D2D0E948C12F4E0EF1AF1088CEFE816FB
:100CB0008FEFF80641F7809155018130C1F110F0B6
:100CC000823019F482EE0E948C12C438E0E5DE070F
:100CD00099F1C538D04509F466C081E0809353018D
:100CE00080935401C801DF91CF911F910F91FF9024
:100CF000EF90DF90BF90AF900C94B70582EE0E940A
:100D0000C411BECF80EE0E94C41181EE0E94C411B6
:100D100088E10E94C41188E10E948C12B1CF82EE5A
:100D20000E94C41187E50E94C41187E5F5CF80EECB
:100D30000E948C1281EEC7CFF8018281882331F0A6
:100D40001092530182E00E94DB1262CF8091530126
:100D5000811106C086E20E94C41186E20E948C12B4
:100D600082E00E94E21254CF80915401811106C0AA
:100D700087E20E94C41187E20E948C1282E1F1CFC7
:100D8000C130F0E8DF0708F06ECF9FCFC130F0E848
:100D9000DF0708F49ACFC43880E5D807B9F2C53820
:100DA000D04509F09ACFF80182818823E9F21092A8
:100DB000540182E1C8CF0895972F70E026E0929FFA
:100DC000600D711D1124FB0194E5899FE00DF11D5B
:100DD0001124EE0FFF1FEF53FF4F8591949108955B
:100DE000FC01EE0FFF1FE35CF040859194910895A4
:100DF000FC01EE0FFF1FE354FF4F8591949108957E
:100E0000CF93DF93EC018115904340F5C11580E24B
:100E1000D80708F0D9C0CB3BD10588F4C83AD10532
:100E200008F081C0C53AD10508F072C0C430D105C0
:100E300098F4C130D10581F0C0E0D0E00DC0CF3FC3
:100E4000D10509F048F4C03FD10508F0BBC0CE0180
:100E5000805E9109089780F7CE01BAC0C13090E555
:100E6000D90709F4BBC010F5C0318FE4D80760F48E
:100E7000C11590E4D90708F0AEC0C11521E3D2072F
:100E8000D8F6DD27D06CE8CFC11580E5D807A1F6EC
:100E90000E9443158FEF94E32CE081509040204056
:100EA000E1F700C000000E94D11CD6CFC11597E524
:100EB000D90730F5C03121E5D20708F01EC1C43191
:100EC00080E5D80708F0B8CF0E94771E811102C0D4
:100ED0000E945D1E0E94941E90E09093FC018093FE
:100EE000FB01C23080E5D80709F07EC08091FB018C
:100EF00081608093FB018091FB010E94981EACCF22
:100F0000CE0190578115904108F096CFDF7055C102
:100F1000C53AD10509F453C1C63AD10509F052C109
:100F2000C2E8D0E499CFC83AD10509F44EC1C93A14
:100F3000D10509F44DC1CA3AD10509F44CC1CB3AE7
:100F4000D10509F44BC1CC3AD10509F44AC1CD3AD7
:100F5000D10509F449C1C03BD10509F448C1CE3AD5
:100F6000D10509F447C1CF3AD10509F446C1C13BC7
:100F7000D10509F445C1C23BD10509F444C1C33BC5
:100F8000D10509F443C1C43BD10509F442C1C53BB5
:100F9000D10509F441C1C63BD10509F440C1C73BA5
:100FA000D10509F43FC1C83BD10509F43EC1C93B95
:100FB000D10509F43DC1CA3BD10509F43CC1C0E0EB
:100FC000D4E44ACFD06548CFCE019F700E94F80686
:100FD000DF91CF910895DF70D06A3ECF8091DC0120
:100FE00081608093DC0138CFC43090E5D90721F4CB
:100FF0008091FB0182607DCFC63020E5D20721F4CD
:101000008091FB01846075CFC83080E5D80721F45A
:101010008091FB0188606DCFCA3090E5D90721F43B
:101020008091FB01806165CFCC3020E5D20721F4AF
:101030008091FB0180625DCFCE3080E5D80721F43E
:101040008091FB01806455CFC03190E5D90721F430
:101050008091FB0180684DCFC23120E5D20721F499
:101060008091FB018460D6CFC33080E5D80721F49E
:101070008091FB018E7F3DCFC53090E5D90721F4EB
:101080008091FB018D7F35CFC73020E5D20721F459
:101090008091FB018B7F2DCFC93080E5D80721F4EB
:1010A0008091FB01877F25CFCB3090E5D90721F4D4
:1010B0008091FB018F7E1DCFCD3020E5D20721F43A
:1010C0008091FB018F7D15CFCF3080E5D80721F4CB
:1010D0008091FB018F7B0DCFC13190E5D90721F4C1
:1010E0008091FB018F7705CFC33120E5D20709F04E
:1010F00002CF8091FB018B7FD5CF8D2F99278F70E9
:10110000992781309105E9F49E012370332702C0AD
:10111000880F991F2A95E2F79C689E0144E0220FF0
:10112000331F4A95E1F722273370822B932B53E02C
:10113000CC0FDD1F5A95E1F7C076DD27C82BD92BE0
:101140008BCE8230910529F4DC2FCC27C16FD06A79
:1011500083CE8330910599F49E012370332781E07B
:1011600090E002C0880F991F2A95E2F79C6823E05F
:10117000CC0FDD1F2A95E1F7C07ED770DFCF84301A
:10118000910561F49E012370332781E090E002C055
:10119000880F991F2A95E2F79A68E9CF8530910563
:1011A00029F4DC2FCC27C46FD06A56CE069709F0FD
:1011B00053CEDC2FCC27CC27DF71D0624DCEC1E8D7
:1011C000D0E44ACEC3E8D0E447CEC2EED4E444CE65
:1011D000C9EED4E441CECAEED4E43ECEC5EBD4E4AD
:1011E0003BCEC6EBD4E438CEC7EBD4E435CECCEC62
:1011F000D4E432CECDECD4E42FCEC3E8D5E42CCE6B
:10120000CAE8D5E429CEC2E9D5E426CEC4E9D5E4BE
:1012100023CEC1E2D6E420CEC3E2D6E41DCEC4E2A2
:10122000D6E41ACEC5E2D6E417CEC6E2D6E414CE92
:10123000C7E2D6E411CECAE2D6E40ECE972F70E014
:1012400026E0929F600D711D1124FB0194E5899F9A
:10125000E00DF11D1124EE0FFF1FEF53FF4F85919D
:101260009491803E910520F5803C910508F040C0A6
:101270008133910509F467C058F48932910509F466
:101280005BC08A32910509F465C00E940007089589
:101290008933910581F18238910569F18533910592
:1012A000A1F78091FB0185FF4BC089E290E0EDCF73
:1012B000833E910589F178F4803E910519F1823ED3
:1012C000910519F78091FB0182FF2AC084FF21C09C
:1012D00080E090E0DACF863E910529F1873E9105C6
:1012E000A1F68091FB0183FF22C086EE90E0CDCF76
:1012F0000E94F00608952091FB01237031F280EEE8
:1013000090E0C3CF8091FB0180FFF9CF89E390E0AB
:10131000BCCF83EE90E0B9CF8091FB0182FFD6CFA6
:1013200082EE90E0B2CF8091FB0183FFDECF84FD9F
:10133000CFCF87EE90E0A9CF8091FB0185FFB5CF9D
:1013400085E390E0A2CF8091FB0186FF07C08AE28F
:1013500090E09BCF8091FB0186FFF9CF81E390E085
:1013600094CF08950C94B109809170010895CF93A2
:10137000DF9300D01F92CDB7DEB79C018091F201C0
:10138000843019F593E099833B832A839093E90095
:101390008FEF9091E800815095FD06C095ED9A95EC
:1013A000F1F700008111F5CF8091E80085FF0DC0B5
:1013B00040E050E063E070E0CE0101960E94190C1D
:1013C0008091E8008E778093E8000F900F900F9047
:1013D000DF91CF910895CF93DF9300D01F92CDB7C7
:1013E000DEB72091F201243021F522E029839B838E
:1013F0008A8383E08093E9008FEF9091E800815029
:1014000095FD06C095ED9A95F1F700008111F5CF95
:101410008091E80085FF0DC040E050E063E070E09F
:10142000CE0101960E94190C8091E8008E7780937E
:10143000E8000F900F900F90DF91CF9108959C01DD
:101440008091F2018430F9F482E08093E9009FEF0B
:101450008091E800915085FD06C085ED8A95F1F7F1
:1014600000009111F5CF8091E80085FF0CC040E0AD
:1014700050E065E070E0C9010E94190C8091E8001D
:101480008E778093E8000895CF93DF93EC018091ED
:10149000F201843071F590910C01992369F19091DA
:1014A0000D01992349F18093E9008FEF9091E800B5
:1014B000815095FD06C095E19A95F1F700008111E4
:1014C000F5CF8091E80085FF14C040E050E060E176
:1014D00070E0CE010E94190C8091E8008E77809315
:1014E000E80080E1FE01A0E6B1E001900D928A954E
:1014F000E1F7DF91CF91089581E08093E9008FEFCC
:101500009091E800815095FD06C095ED9A95F1F710
:1015100000008111F5CF8091E80085FFEACF40E01F
:1015200050E068E070E0D5CF8091F101811109C0F1
:101530000E94A60D0E94030E8091E20084608093B9
:10154000E20008951092F101089508950C94EF229D
:101550000E94671C0E94F5220E94A9100C94B209F7
:1015600042E061EC81E00E94230D42E061EC82E008
:101570000E94230D42E061EC83E00E94230D42E1D2
:1015800061EC84E00C94230D8091F401833009F424
:1015900055C030F4813071F1823009F491C0089562
:1015A0008A3009F47DC08B3009F463C0893009F0BA
:1015B00044C08091F301813209F03FC08091F7016E
:1015C0009091F801009711F00397B9F58091E80028
:1015D000877F8093E8008091E80082FF2AC0809195
:1015E000F100809370018091E8008B778093E80090
:1015F0000C94580D8091F301813AF9F48091E80040
:10160000877F8093E8008091F7019091F801892B02
:1016100061F460E180E691E070E00E94680C8091E6
:10162000E8008B778093E800089560E080E090E028
:10163000F3CF8091F2018111CECF08958091F30113
:10164000813AD9F78091F7019091F801892BA9F798
:101650008091E800877F8093E8008091E80080FF18
:10166000FCCF80910C018093F1008091E8008E778F
:10167000BDCF8091F301813201F78091F701909104
:10168000F801892BD1F68091E800877F8093E800EC
:101690000E94580D8091F50180930C010C94431524
:1016A0008091F301813249F68091E800877F809331
:1016B000E8000E94580D8091F60180937101089511
:1016C0008091F301813A09F0B8CF8091E800877FDB
:1016D0008093E8008091E80080FFFCCF8091710149
:1016E000C2CF84B7877F84BF0FB6F894A895809146
:1016F0006000886180936000109260000FBE80E8F7
:1017000080936100109261000E94F8100E94A60D63
:101710000E94030E8091E20084608093E20078943E
:101720000E9488100E94FA1082E091E00E94A410AA
:101730000E94DD228091F201853019F00E94001193
:10174000F9CF0E942E1C8091F001882399F30E940A
:10175000591C882379F30E94030CECCF292F3327DF
:101760002330310579F158F421303105F1F0223080
:10177000310519F180E090E020E030E01AC021321C
:10178000310599F122323105A9F7643098F770E0FC
:10179000FB01EE0FFF1FE65EFE4F208131816A5E86
:1017A0007E4FFB01808190E004C082E190E022E066
:1017B00034E0FA013183208308958DE690E025E935
:1017C00033E0F7CF99278130910561F028F0029737
:1017D00089F6E1E6F3E002C0E1E9F3E0849190E00C
:1017E0009F01E7CFE9E7F3E0F9CF643008F0C2CF1B
:1017F000E62FF0E0EE0FFF1FEE5DFE4F20813181FE
:1018000089E090E0D6CF80E189BD82E189BD09B44D
:1018100000FEFDCF8091D8008F7D8093D80080910D
:10182000E00082608093E0008091E00081FDFCCFC9
:101830000895AF92BF92DF92EF92FF920F931F93A2
:10184000CF93DF93EC018B017A010E94770DD82EA4
:10185000811124C0E114F10439F0F70180819181F4
:10186000081B190BC80FD91FA12CB12C011511058C
:10187000A9F08091E80085FD22C08091E8008E7774
:101880008093E800E114F104A1F0F70180819181D7
:10189000A80EB91EB182A08285E0D82E8D2DDF91D1
:1018A000CF911F910F91FF90EF90DF90BF90AF907D
:1018B00008950E94770D8823C9F2D82EEFCF899121
:1018C0008093F10001501109FFEFAF1ABF0ACECF8C
:1018D0002091F9013091FA0126173707A8F0611518
:1018E000710529F42091E8002E772093E800FC018F
:1018F00020E06115710551F4211108C08091E800C4
:1019000082FF33C080E00895B901F1CF8091F201E8
:101910008823B9F18530B9F18091E80083FD2FC0AB
:101920008091E80082FDEACF8091E80080FFE1CF5E
:101930002091F3008091F20090E0922B61157105E7
:1019400019F08830910550F021E0089709F020E067
:101950008091E8008E778093E800CBCF219120938F
:10196000F100615071090196E9CF8091F20188235D
:1019700041F0853041F08091E80083FFBFCF81E0E6
:10198000089582E0089583E008952091F90130914F
:10199000FA0126173707A8F06115710529F420917F
:1019A000E8002E772093E800FC0120E06115710526
:1019B00051F4211108C08091E80082FF34C080E01A
:1019C0000895B901F1CF8091F2018823C1F18530EA
:1019D000C1F18091E80083FD30C08091E80082FD74
:1019E000EACF8091E80080FFE1CF2091F300809161
:1019F000F20090E0922B6115710519F08830910585
:101A000050F021E0089709F020E08091E8008E77FF
:101A10008093E800CBCF24912093F1003196615060
:101A200071090196E8CF8091F201882341F0853059
:101A300041F08091E80083FFBECF81E0089582E00D
:101A4000089583E00895982F973028F08F70809341
:101A5000E90081E008959093E900981751F07091A2
:101A6000EC002091ED005091F00021FD06C09F5F39
:101A7000EBCF242F762F50E0F8CF3091EB003E7F54
:101A80003093EB003091ED003D7F3093ED003091CD
:101A9000EB0031603093EB007093EC002093ED008D
:101AA0005093F0002091EE0027FDE1CF80E00895F3
:101AB0008091F30187FF13C08091E80082FF06C088
:101AC0008091E8008B778093E80004C08091F20158
:101AD0008111F2CF08958091F2018823D9F380918A
:101AE000E80080FFF8CF8091E8008E77ECCF20915E
:101AF000E4003091E50085E69091EC0090FD20C077
:101B00009091E80092FD20C09091F201992391F00C
:101B1000953091F09091EB0095FD10C04091E4005C
:101B20005091E5004217530739F381509A0121F78C
:101B300084E0089582E0089583E0089581E00895A7
:101B40009091E80090FFE0CF80E008950E94140E8D
:101B50000E941C0EE0EEF0E0808181608083E8ED61
:101B6000F0E080818F77808319BCA7EDB0E08C9185
:101B70008E7F8C9380818F7E80831092F1010895F7
:101B80000F931F93CF93DF930E94140E0E941C0E9D
:101B9000C8EDD0E088818F778883888180688883CA
:101BA00088818F7D888319BC1092F2011092EE011A
:101BB0001092F0011092EF0100EE10E0F801808128
:101BC0008B7F808388818160888342E060E080E051
:101BD0000E94230DE1EEF0E080818E7F8083E2EEB3
:101BE000F0E0808181608083808188608083F8015B
:101BF00080818E7F8083888180618883DF91CF910F
:101C00001F910F910895E8EDF0E080818F7E808331
:101C1000E7EDF0E080818160808384E082BF81E035
:101C20008093F1010C94C00DE8EDF0E080818E7F8F
:101C300080831092E20008951092DA001092E10081
:101C400008951F920F920FB60F9211242F933F9376
:101C50004F935F936F937F938F939F93AF93BF93B4
:101C6000EF93FF938091E10082FF0BC08091E2002F
:101C700082FF07C08091E1008B7F8093E1000E948A
:101C800087108091DA0080FF19C08091D80080FF12
:101C900015C08091DA008E7F8093DA008091D900A0
:101CA00080FF94C080E189BD82E189BD09B400FE56
:101CB000FDCF81E08093F2010E94940A8091E100BF
:101CC00080FF19C08091E20080FF15C08091E20082
:101CD0008E7F8093E2008091E20080618093E20039
:101CE0008091D80080628093D80019BC85E08093F1
:101CF000F2010E94A60A8091E10084FF29C0809130
:101D0000E20084FF25C080E189BD82E189BD09B47C
:101D100000FEFDCF8091D8008F7D8093D800809108
:101D2000E1008F7E8093E1008091E2008F7E8093BE
:101D3000E2008091E20081608093E2008091EE01F8
:101D4000882309F449C084E08093F2010E94A80A24
:101D50008091E10083FF29C08091E20083FF25C0CC
:101D60008091E100877F8093E10082E08093F2011F
:101D70001092EE018091E1008E7F8093E1008091CE
:101D8000E2008E7F8093E2008091E2008061809388
:101D9000E20042E060E080E00E94230D8091F000CC
:101DA00088608093F0000E94A50AFF91EF91BF9197
:101DB000AF919F918F917F916F915F914F913F91E3
:101DC0002F910F900FBE0F901F90189519BC109275
:101DD000F2010E94A20A72CF8091E30087FD02C047
:101DE00081E0B2CF83E0B0CF1F920F920FB60F9277
:101DF00011242F933F934F935F936F937F938F9310
:101E00009F93AF93BF93CF93EF93FF93C091E9005C
:101E1000CF708091EC001092E9008091F000877FF4
:101E20008093F00078940E94300F1092E900809126
:101E3000F00088608093F000C093E900FF91EF917B
:101E4000CF91BF91AF919F918F917F916F915F9152
:101E50004F913F912F910F900FBE0F901F901895AB
:101E60001F93CF93DF93CDB7DEB7AA970FB6F89441
:101E7000DEBF0FBECDBFE3EFF1E08091F1008193B3
:101E800021E0EB3FF207C9F70E94C40A8091E80005
:101E900083FF44C08091F3019091F401492F50E0F9
:101EA0004A30510508F03AC0FA01E75AF04F0C9455
:101EB0008624630F870F8E0F870F8E0FE20F05109A
:101EC0008E0F5A106710803879F0823839F580917A
:101ED000F7018F708093E9008091EB0085FB8827E4
:101EE00080F91092E90006C08091EF019091F00115
:101EF000911182609091E800977F9093E800809321
:101F0000F1001092F1008091E8008E772DC0282F0B
:101F10002D7F21F48823D1F0823059F18091E8009F
:101F200083FF0AC08091E800877F8093E80080915A
:101F3000EB0080628093EB00AA960FB6F894DEBFA8
:101F40000FBECDBFDF91CF911F9108958091F50114
:101F5000813021F7933009F080E08093F0011092F6
:101F6000E9008091E800877F8093E8000E94580D87
:101F7000D5CF8091F5018111F2CF8091F7018F705B
:101F800069F28093E9002091EB0020FFE8CF9330C5
:101F900031F48091EB0080628093EB00E0CF909170
:101FA000EB0090619093EB0021E030E001C0220F44
:101FB0008A95EAF72093EA001092EA008091EB00FC
:101FC0008860EACF8111AACF1091F5011F77809127
:101FD000E3008078812B8093E3008091E800877F85
:101FE0008093E8000E94580D8091E80080FFFCCFAC
:101FF0008091E30080688093E300111104C082E0C7
:102000008093F2018BCF83E0FBCF8058823008F0C1
:1020100085CF8091F5019091F6018C3D23E09207E8
:10202000A1F583E08A838AE289834FB7F894DE01C1
:10203000139620E03EE051E2E32FF0E0509357008A
:10204000E49120FF03C0E295EF703F5FEF708E2FA9
:1020500090E0EA30C0F0C7968D939D932F5F2431B6
:1020600059F74FBF8091E800877F8093E8006AE2CC
:1020700070E0CE0101960E94680C8091E8008B7799
:102080008093E8004BCFC096E7CFAE014F5F5F4F24
:102090006091F7010E94AE0BBC01892B09F43ECF81
:1020A0009091E800977F9093E80089819A810E943F
:1020B000C50CE3CF803809F031CF8091E800877FED
:1020C0008093E8008091EE018093F1001CCF811194
:1020D00025CF9091F501923008F020CF8091E80053
:1020E000877F8093E8009093EE010E94580D8091C5
:1020F000EE01882311F084E005C08091E30087FDA4
:10210000FACF81E08093F2010E94B00A07CF0895D0
:10211000CF938091F201882399F0C091E900CF70AC
:102120008091EC0080FD0EC080E0C82B1092E90089
:102130008091E80083FD0E94300FCF70C093E900CA
:10214000CF91089580E8F1CF909377018093760145
:102150000895E0917601F0917701309721F0019098
:10216000F081E02D099480E00895E0917601F091EE
:102170007701309721F00280F381E02D09940895D2
:10218000E0917601F0917701309721F00480F5819C
:10219000E02D09940895209174013091750128175C
:1021A000390771F09093750180937401E091760185
:1021B000F0917701309721F00680F781E02D0994A6
:1021C000089520917201309173012817390771F039
:1021D0009093730180937201E0917601F091770101
:1021E000309721F00084F185E02D09940895089539
:1021F0000C94F7100E946D1C0E946B030C942F1D11
:102200008F929F92AF92BF92CF92DF92EF92FF9206
:102210000F931F93CF93DF9300D000D01F92CDB7C1
:10222000DEB70E9492030DE010E0AA24A394B12C23
:10223000802E802F0E948104F82EC80187589E4F5F
:102240006C01FC01E080FE1014C00150110980F700
:102250008FEF89838A831B820E94761C8160782F8E
:102260009D838C8349815A816B818D810E94961157
:1022700028C08091DC0181FD0E94870485E090E008
:10228000EF249501082E01C0220F0A94EAF7922E3E
:102290002E21B1F189838A82F92081E009F480E05E
:1022A0008B830E94761C8160782F9D838C8349816B
:1022B0005A816B818D810E949611F601808189255A
:1022C00080830E9413200E94A910909178018917A1
:1022D000D9F00E94A910809378010F900F900F9071
:1022E0000F900F90DF91CF911F910F91FF90EF9082
:1022F000DF90CF90BF90AF909F908F900C94B209D9
:10230000019708F0BECFA1CF0F900F900F900F90C4
:102310000F90DF91CF911F910F91FF90EF90DF9081
:10232000CF90BF90AF909F908F900895CF93DF9301
:10233000CDB7DEB72B970FB6F894DEBF0FBECDBF7B
:102340004F83588769877A878B87DE01119686E0ED
:10235000FD0111928A95E9F785E0FE01379601901B
:102360000D928A95E1F749815A816B817C818D813B
:102370009E810E94FA172B960FB6F894DEBF0FBE0F
:10238000CDBFDF91CF910895CF93C82F882309F453
:10239000C1C0823879F40E94A91081FDBBC089E3D5
:1023A0000E94DF1A0E94A41B89E30E941B1BCF918D
:1023B0000C94A41B833859F40E94A91080FDAAC074
:1023C00083E50E94DF1A0E94A41B83E5EECF8438C8
:1023D00059F40E94A91082FD9DC087E40E94DF1A73
:1023E0000E94A41B87E4E1CF8CEF8C0F813A48F464
:1023F0008C2F0E94492281118DC08C2F0E94DF1AE0
:10240000D6CF80E28C0F883048F4C77081E001C0DD
:10241000880FCA95EAF70E945B1BC9CF8BE58C0F2A
:10242000833078F4C53A39F0C63A41F083E890E059
:10243000CF910C94CB1081E890E0FACF82E890E045
:10244000F7CF88E58C0F833108F064C0C83A49F1B2
:10245000C93A51F1CA3A59F1CB3A61F1CC3A69F132
:10246000CD3A71F1C03B79F1CE3A81F1CF3A89F1A1
:10247000C13B91F1C23B99F1C33BA1F1C43BA9F12E
:10248000C53BB1F1C63BB9F1C73BC1F1C83BC9F18E
:10249000C93BD1F1CA3BD9F180E090E0CF910C94D7
:1024A000E11082EE90E0FACF89EE90E0F7CF8AEE6D
:1024B00090E0F4CF85EB90E0F1CF86EB90E0EECFAB
:1024C00087EB90E0EBCF8CEC90E0E8CF8DEC90E0E8
:1024D000E5CF83E891E0E2CF8AE891E0DFCF82E9BF
:1024E00091E0DCCF84E991E0D9CF81E292E0D6CFD0
:1024F00083E292E0D3CF84E292E0D0CF85E292E013
:10250000CDCF86E292E0CACF87E292E0C7CF8AE2DF
:1025100092E0C4CFCF910895882309F44BC082384C
:1025200071F40E94A91081FF45C089E30E94DF1A5F
:102530000E94A41B89E30E941B1B0C94A41B8338DC
:1025400059F40E94A91080FF35C083E50E94DF1A6C
:102550000E94A41B83E5EFCF843859F40E94A91090
:1025600082FF28C087E40E94DF1A0E94A41B87E430
:10257000E2CF9CEF980F913AF0F290E2980F9830EA
:1025800050F4877091E001C0990F8A95EAF7892F7E
:102590000E94611BD2CF9BE5980F933020F480E01E
:1025A00090E00C94CB10885A833120F480E090E0C6
:1025B0000C94E1100895882321F00E945B1B0C9479
:1025C000A41B0895882321F00E94611B0C94A41B76
:1025D00008958F929F92AF92BF92DF92EF92FF92F7
:1025E0000F931F93CF93DF937C01D62FC72FFC014E
:1025F000058102950F70128111110E947A1B0E94B1
:10260000D81AD82E882371F0112331F180E28D0F72
:10261000883010F182E00E94C11A0E94D81A91E01D
:10262000D82ED926EC2FE295EF708E2F90E0FC018A
:10263000E45EFC4E0C9486242E132E13791379132A
:10264000B113CF1357135713DA13571375147514A7
:10265000E61457135713EF14D12CE4CF8C2F807F3F
:10266000CF70882311F0C295C07F112399F0CC233D
:1026700049F080E28D0F883048F48C2F0E945B1B5C
:102680000E94A41B8D2F0E94C41111C08C2F0E9488
:102690006C1BF6CF8D2F0E948C12CC2341F0D05EA4
:1026A0008C2FD83018F50E94611B0E94A41BDD20DE
:1026B00009F49CC10E94B41A80FD98C1F7011282EE
:1026C0000E94AE1A0E94A119C7010E9402150E9421
:1026D000AE1ADF91CF911F910F91FF90EF90DF9095
:1026E000BF90AF909F908F900C94C2190E94721B64
:1026F000DCCF8C2F807FCF70803211F0C295C07FED
:10270000DD2339F0D130F1F0112329F1002329F034
:10271000B9CF112361F0011104C08C2F0E94DB128C
:10272000C6CF8C2F0130D1F70E948E1BC0CF011174
:1027300006C00E94911B8C2F0E94E212B8CF01307C
:10274000C1F7B5CF112321F0023008F0B0CFE5CFAB
:102750000111ADCFF0CF002371F38D2F0E948C12A9
:10276000A6CF8C2F86958695837059F0813009F01D
:102770009ECF112389F08D2F9C2F93700E94E11022
:1027800096CF112331F08D2F9C2F93700E94CB1088
:102790008ECF80E090E0FACF80E090E0EFCF8D2FF9
:1027A000112329F00E941C1F0E94082080CF0E9444
:1027B000841FFACF8C2F837009F048C0111177CF96
:1027C0002D2F229526952770220F220F6D2F6F70C7
:1027D000862E912CA12CB12C022E04C0880C991CA1
:1027E000AA1CBB1C0A94D2F7D4FF1EC06FE070E095
:1027F00080E090E004C0660F771F881F991F2A951C
:10280000D2F76095709580959095C695C695C370E2
:10281000C23071F0A0F4682979298A299B29C13036
:1028200091F00E944A1943CF60E070E0CB01EDCFF8
:10283000682979298A299B290E94661938CF0E9424
:102840004A19C501B4010E942E1931CF1123C9F1D3
:102850008C2F8170882309F42ACF2D2F229526955D
:102860002770220F220F6D2F6F70862E912CA12CB6
:10287000B12C022E04C0880C991CAA1CBB1C0A9403
:10288000D2F7D4FF20C06FE070E080E090E004C099
:10289000660F771F881F991F2A95D2F7609570954C
:1028A00080959095C695C695C370C23081F0B0F4FE
:1028B000682979298A299B29C130A1F00E94241A0C
:1028C000F6CE8695C7CF60E070E0CB01EBCF6829EC
:1028D00079298A299B290E94401AE9CE0E94241A4C
:1028E000C501B4010E94081AE2CE8D2F90E0FC01D0
:1028F000E05EF109E531F10508F060C0EE57FB4EEE
:102900000C9486249714971497149714971497147B
:10291000971497149714971497149714971497145F
:1029200097149714A414B114B814BF14C914DF7009
:102930008C2F8F71112321F00E94A1198D2FEECEC3
:102940000E94C2198D2FF8CE112339F00111AFCE9C
:102950008C2F8F710E94E719AACE023008F0A7CE03
:10296000F7CF112339F08C2F8F710E94A1199FCEC0
:102970001123C9F38C2F8F710E94C21998CE112395
:1029800029F08C2F8F710E948C1991CE0E94821990
:102990008ECE112349F0CF718C2F0E94A11963E0D4
:1029A0008C2F0E94B81A83CE81E00E94C11A023097
:1029B00008F47DCE82E00E94C11A79CE112319F06D
:1029C000002389F25FCE0023A9F2C7CE4C2F4F70AF
:1029D0006D2FC7010E945D050E94A81868CE4C2F7C
:1029E0004F706D2FC7010E94DB0661CEDF91CF9142
:1029F0001F910F91FF90EF90DF90BF90AF909F904D
:102A00008F9008950F931F93CF93DF93EC019881DC
:102A100089812B813C81232B39F08F3F19F481E090
:102A20009F3F19F080E001C081E080FD13C0CE011E
:102A30000E94C805882371F0688179818A810E948B
:102A4000AA1A8C010E945C1A0E942319B801CE01B7
:102A50000E94E912DF91CF911F910F9108950E947A
:102A60007A1B0E948B1B0E944D1B0E94A41B0E947C
:102A7000B6200E94082080E090E00E94CB1080E009
:102A800090E00C94E1100E94691B0C942F150E9499
:102A90009F1A292F22952F702C3060F42A3018F4B9
:102AA0002250223058F4803F19F050F4803E30F428
:102AB00081E008952C3039F02F3029F080E008951E
:102AC000843FE1F7F5CF93FB882780F90895CF93F2
:102AD000DF9300D000D01F92CDB7DEB70F900F90DC
:102AE0000F900F900F90DF91CF910895CF93DF93C8
:102AF00000D000D000D0CDB7DEB726960FB6F89440
:102B0000DEBF0FBECDBFDF91CF9108951F93CF934E
:102B1000DF93C091870116E080918801C81304C03B
:102B2000DF91CF911F910895D0E01C9FF0011D9F70
:102B3000F00D1124E757FE4F40815181628173816E
:102B4000848195810E9476152196C770E5CF4091CA
:102B5000B9015091BA016091BB017091BC018091A3
:102B6000BD019091BE010C9476151F93CF93DF9316
:102B70008091BE0182958F70D1F48091BB01882332
:102B8000B1F080918701D0918801B091B901C091D5
:102B9000BA014091BC015091BD01A1E0BF3F09F0D5
:102BA000A0E0BA016095709516E08D1304C0DF9126
:102BB000CF911F91089541155105D9F1CF3FD9F11A
:102BC00020E090E020FD3CC0189FF001199FF00D1F
:102BD0001124E757FE4F21812C1332C020812B1383
:102BE0002FC0228121112CC0238134812417350765
:102BF00020F1241B350B283C310510F52091BE0136
:102C00002F7020612093BE0126E0289FF001299FAC
:102C1000F00D1124E257FE4F80818F708061808318
:102C200089EB91E00E940215DF91CF911F910C94E6
:102C3000861521E0C6CF2A2FC4CF260F371FDBCF42
:102C400001968770B2CFAF92BF92CF92DF92EF9290
:102C5000FF920F931F93CF93DF93CDB7DEB76197AA
:102C60000FB6F894DEBF0FBECDBF8C0185E0F80132
:102C7000DE011D9601900D928A95E1F7D8014C91E5
:102C800011965C9111971296EC903091B901609178
:102C9000BA018091BC019091BD01009739F06F3F5E
:102CA00019F421E03F3F19F020E001C021E0B22FEC
:102CB000B170BB2E20FD90C1F801C380D480A090DC
:102CC000BB01AA2009F432C12091BE01C816D90661
:102CD00010F1D601A81BB90BCD01FF24F394883C59
:102CE0009105F0F0F12C207F09F0E9C07C2DD98A04
:102CF000C88A6E2D89890E94671589EB91E00E9430
:102D00000215E9EBF1E086E0DF011D928A95E9F713
:102D10000E94A7151EC0809590958C0D9D1DDDCF3E
:102D2000822F807F09F084C0651325C0341323C02F
:102D3000FE2CE11020C02F7020612093BE010E9464
:102D4000A71589EB91E00E9402158091BE01F80160
:102D500085838F2D61960FB6F894DEBF0FBECDBF71
:102D6000DF91CF911F910F91FF90EF90DF90CF9067
:102D7000BF90AF900895CD2839F05F3F19F481E0FE
:102D80004F3F19F080E001C081E080FD24C081E068
:102D90008E25F82FF170FF2E80FF3FC080918701B4
:102DA0002091880136E0821318C04D875E878D859B
:102DB0009E850E949F1A292F22952F70223008F19C
:102DC000243030F59F7009F1D80115969C91907FC1
:102DD000E1F4FB2CBECF80E0DCCF90E0389FF00127
:102DE000399FF00D1124E757FE4F6181561306C03D
:102DF0006081641303C06281E6120FC00196877080
:102E0000D2CF9F7011F0882321F3805E883008F3C1
:102E1000C8010E940215BF2CDCCFFE2CEE2009F465
:102E200098CF8091BE0181608093BE01F12C91CF3B
:102E3000651314C0341312C0E11010C08091BE019C
:102E4000F8018583C8010E94021586E0F801A9EB0C
:102E5000B1E001900D928A95E1F75ACF4D875E87D8
:102E60008D859E850E944715882309F4BFC0EE20FA
:102E700009F4BCC02091BE01822F82958F7090E032
:102E8000029774F08091B9019091BA0198878F836D
:102E90001986DB86CA862C87CE0107960E9402150A
:102EA00086E0F801A9EBB1E001900D928A95E1F777
:102EB0000E94B5150E94A715FF24F3944ACF65130D
:102EC00014C0341312C0E11010C08091BE01F8018B
:102ED0008583C8010E94021586E0E9EBF1E0DF017D
:102EE0001D928A95E9F7FA2C34CF4D875E878D8540
:102EF0009E850E944715882309F478C0EE2009F4C6
:102F000075C02091BE01822F82958F7090E002974C
:102F10003CF28091B9019091BA019A8389831B8216
:102F2000DD82CC822E83CE010196B8CFC816D90699
:102F300080F0F601E81BF90BCF01883C910570F099
:102F4000F12C7C2DD98AC88A6E2D89890E9467153B
:102F5000D8CE809590958C0D9D1DEFCFFE2CEE2048
:102F600009F444C0651327C0341325C08091BE0105
:102F700080FD18C0982F92959F70292F30E0211561
:102F8000310581F0D80115968C9315972F303105B6
:102F900009F458CF9F5F9295907F8F70892B15967B
:102FA0008C9350CF86E0F801A9EBB1E001900D922F
:102FB0008A95E1F7CECE4D875E878D859E850E94EE
:102FC000471581116DCF8091BE0181608093BE0154
:102FD000C8010E940215BDCEEE2041F04D875E87EC
:102FE0008D859E850E94471581115ACFC8010E9488
:102FF000021562CF1F93CF93DF93CDB7DEB72C9727
:103000000FB6F894DEBF0FBECDBF4F8358876987D8
:103010007A878B879C87CE0107960E942316882388
:1030200049F19F8188852A853B85232B39F08F3F85
:1030300019F481E09F3F19F080E001C081E080FD3C
:1030400008C04F81588569857A858B859C850E944B
:10305000761516E08091870190918801891348C008
:103060002C960FB6F894DEBF0FBECDBFDF91CF9187
:103070001F91089586E0FE013796DE0111960190BA
:103080000D928A95E1F7FF81E8856A857B85611558
:10309000710539F0EF3F19F481E0FF3F19F080E04E
:1030A00001C081E080FDD5CF2091880130E0C901C9
:1030B0000196877099274091870150E08417950702
:1030C000C9F1F983EA837D836C8396E0929FD001F6
:1030D000939FB00D1124A757BE4FFE01319601906A
:1030E0000D929A95E1F7809388010E948615B1CFE1
:1030F000819FC001112487579E4F0E942316882369
:1031000009F4AECFE09187011E9FF0011124E7572B
:10311000FE4F4081518162817381848195810E943B
:1031200076158091870190E00196877099278093AA
:10313000870190CF0E944315109288011092870159
:10314000E9EBF1E086E0DF011D928A95E9F788CF8F
:10315000EF92FF920F931F93CF93DF938C01892BF4
:1031600081F0F12CEE24E394E8012196F80184919A
:10317000843770F4843008F062C08130B1F082305E
:10318000B1F1DF91CF911F910F91FF90EF900895D2
:10319000853709F44FC008F43FC09CE7980F90377B
:1031A00080F78F770E948C124CC00E5F1F4FFE017C
:1031B000849190E2980F983060F48770FE2D01C0E2
:1031C000FF0F8A95EAF78F2F0E947D1B0E94A41B98
:1031D00002C00E94C4118F2D882309F4C5CFEFE9E6
:1031E000FFE03197F1F700C000008150F5CF0E5F8E
:1031F0001F4FFE01849190E2980F983050F4877031
:10320000FE2D01C0FF0F8A95EAF78F2F0E94831BC6
:10321000DDCF0E948C12DFCF0E5F1F4FFE01C491E5
:10322000CC23C9F28FE99FE00197F1F700C00000BD
:10323000C150F6CF0E5F1F4FFE01F490CCCF0E941D
:10324000C4118E01C8CF08956093C3017093C40167
:103250008093C5019093C6010C942F150F931F9373
:103260000091C3011091C4012091C5013091C601A4
:10327000DC01CB01802B912BA22BB32B8093C301BC
:103280009093C401A093C501B093C6011F910F9103
:103290000C942F150F931F930091C3011091C4013B
:1032A0002091C5013091C601DC01CB01802391231F
:1032B000A223B3238093C3019093C401A093C501BB
:1032C000B093C6011F910F910C942F150F931F936C
:1032D0000091C3011091C4012091C5013091C60134
:1032E000DC01CB0180279127A227B3278093C3015C
:1032F0009093C401A093C501B093C6011F910F9193
:103300000C942F151092BF011092C0011092C101B0
:103310001092C2010C942F1541E050E060E070E083
:1033200004C0440F551F661F771F8A95D2F740933C
:10333000BF015093C0016093C1017093C2010C940E
:103340002F1541E050E060E070E004C0440F551FCD
:10335000661F771F8A95D2F78091BF019091C001B7
:10336000A091C101B091C201842B952BA62BB72B44
:103370008093BF019093C001A093C101B093C2019B
:103380000C942F1541E050E060E070E004C0440F61
:10339000551F661F771F8A95D2F740955095609507
:1033A00070958091BF019091C001A091C101B09131
:1033B000C20184239523A623B7238093BF01909352
:1033C000C001A093C101B093C2010C942F1541E03C
:1033D00050E060E070E004C0440F551F661F771F87
:1033E0008A95D2F78091BF019091C001A091C1014F
:1033F000B091C20184279527A627B7278093BF01E4
:103400009093C001A093C101B093C2010C942F15F9
:103410000F931F930091BF011091C0012091C10132
:103420003091C201DC01CB01802B912BA22BB32B5D
:103430008093BF019093C001A093C101B093C201DA
:103440001F910F910C942F150F931F930091BF01A3
:103450001091C0012091C1013091C201DC01CB016A
:1034600080239123A223B3238093BF019093C001B3
:10347000A093C101B093C2011F910F910C942F151D
:103480000F931F930091BF011091C0012091C101C2
:103490003091C201DC01CB0180279127A227B327FD
:1034A0008093BF019093C001A093C101B093C2016A
:1034B0001F910F910C942F150895BF92CF92DF9218
:1034C000EF92FF920F931F93CF93DF938C01C090E5
:1034D000BF01D090C001E090C101F090C201809185
:1034E000C3019091C401A091C501B091C601C82A41
:1034F000D92AEA2AFB2ACFE1D0E0BC2ED701C601A7
:103500000C2E04C0B695A795979587950A94D2F787
:1035100080FD0EC0219788F7B12C8B2DDF91CF91C4
:103520001F910F91FF90EF90DF90CF90BF90089583
:10353000B8018C2F0E941E09019761F3EECFCF9343
:10354000DF93EC010E945D1ABE010E941E09DF910B
:10355000CF910895CB010E949F1A08958091C701D1
:1035600085958595859508958091C7018770089503
:1035700098E0899F90011124622B6093C7010C94FD
:10358000A1192091C701809582238093C701982FAC
:10359000977069F430E0482F082E000C550B241763
:1035A000350729F08595859585950C94C219089560
:1035B0009091C701977081E009F480E0089590919F
:1035C0000C019923D9F090910D019923B9F0982F0E
:1035D0009695969596959F3030F5E0910E01F09175
:1035E0000F01E90FF11D877021E030E001C0220FCB
:1035F0008A95EAF78181822B8183089520910E01BB
:1036000030910F01F90132969FEF40E051918517FB
:1036100051F09F3F19F4511101C0942F4F5F4E306C
:10362000A9F79F3F09F40895290F311D97FD3A9599
:10363000F9018283089590910C019923E9F090910A
:103640000D019923C9F0982F9695969596959F30E0
:1036500018F5E0910E01F0910F01E90FF11D282FEF
:10366000277081E090E001C0880F2A95EAF78095E5
:10367000918189238183089520910E0130910F015A
:10368000F9013296205F3F4F9081891301C010826B
:103690003196E217F307C1F7089581E090E0E091D9
:1036A0000E01F0910F01E80FF91F10820196803191
:1036B0009105A9F708959091DB01892B8093DB0197
:1036C0000895982F90958091DB0189238093DB01E9
:1036D00008951092DB0108959091DA01892B80936F
:1036E000DA010895982F90958091DA0189238093CB
:1036F000DA0108951092DA0108959091D901892B89
:103700008093D9010895982F90958091D9018923AC
:103710008093D90108951092D90108958093C8012A
:1037200008951092C801089520910E0130910F0163
:10373000F9013196205F3F4F80E0919191118F5FA9
:10374000E217F307D1F70895E0910E01F0910F0110
:103750008091DB018083E0910E01F0910F01808167
:103760009091DA01892B8083E0910E01F0910F0195
:1037700080819091D901892B80839091C8019923F0
:1037800061F0E0910E01F0910F018081892B80831F
:103790000E94941B81111092C80180910E0190919A
:1037A0000F010C94B51020E0009711F4822F0895BA
:1037B000AC0141505109842395232F5FF5CFCF925F
:1037C000DF92EF92FF926C01EE24FF24C114D1042A
:1037D000E104F10409F440C0C701B60120E1C72E9D
:1037E000D82EE92EFF24C114D104E104F10419F00C
:1037F000285FC701B6016B017C0154E0F694E794A1
:10380000D794C7945A95D1F7C114D104E104F104B7
:1038100019F02C5FC701B6016B017C0142E0F69400
:10382000E794D794C7944A95D1F7C114D104E10421
:10383000F10419F02E5FC701B6019695879577952B
:103840006795672B682B692B09F02F5F822FFF90FC
:10385000EF90DF90CF90089520E0C1CF8091F201EA
:10386000843029F120E488E190E00FB6F894A8951F
:10387000809360000FBE2093600080E00E94B20938
:1038800083B7817F846083BF83B7816083BF78946F
:10389000889583B78E7F83BF0FB6F894A8958091E3
:1038A0006000886180936000109260000FBE0895F0
:1038B00008950E947F030E9492030E94581C0E9458
:1038C000880491E0811101C090E0892F08950E9441
:1038D00043150E94A9100C94B20982E084BD93E0C4
:1038E00095BD9AEF97BD80936E0008952FB7F89419
:1038F0008091DD019091DE01A091DF01B091E001A6
:103900002FBF0895CF92DF92EF92FF920F931F93F4
:103910002FB7F8944091DD015091DE016091DF01F5
:103920007091E0012FBF6A017B01EE24FF248C011E
:1039300020E030E0C016D106E206F30650F0481B46
:10394000590BCA011F910F91FF90EF90DF90CF901C
:10395000089541505109F3CF1F920F920FB60F9265
:1039600011248F939F93AF93BF938091DD0190912A
:10397000DE01A091DF01B091E0010196A11DB11D12
:103980008093DD019093DE01A093DF01B093E0010D
:10399000BF91AF919F918F910F900FBE0F901F908D
:1039A00018950E94A60DF8942FEF87EA91E6215012
:1039B00080409040E1F700C0000087E090EBDC0120
:1039C0008093FC019093FD01A093FE01B093FF0151
:1039D0009CE088E10FB6F894A895809360000FBE34
:1039E00090936000FFCFEF92FF920F931F93CF93BE
:1039F000DF93D82FCDE08C2F0E94810405E010E0EA
:103A0000E82EF12CC701002E02C0959587950A94E7
:103A1000E2F780FF0FC0602F7C2F80E00E94DC0661
:103A20008D1308C081E0DF91CF911F910F91FF901E
:103A3000EF9008950150110928F7C150E0F680E099
:103A4000F2CFCF93C82F8CE20E94F31C882321F081
:103A50008C2FCF910C94F31C80E0CF910895CF93DD
:103A60000E94771E811102C00E945D1EC5E6C150F2
:103A700009F0EDC089E20E94211D81111CC18AE27A
:103A80000E94211D81110E945D1E85E00E94211D62
:103A900081110E94D11C0E94821E8093DC0187E06C
:103AA0000E94211D882389F08BE10E94211D88231B
:103AB00009F4D6C08091DC0181FB992790F921E0BF
:103AC000922790FB81F98093DC018091DC010E94B8
:103AD000861E0E94941E8093FB0180EE0E94211D91
:103AE000882341F08091FB01982F909590FB80F9FD
:103AF0008093FB0189E30E94211D882359F0809166
:103B0000FB0181FB992790F921E0922790FB81F935
:103B10008093FB0182EE0E94211D882359F0809141
:103B2000FB0182FB992790F921E0922790FB82F913
:103B30008093FB0186EE0E94211D882359F080911D
:103B4000FB0183FB992790F921E0922790FB83F9F1
:103B50008093FB0183EE0E94211D882359F0809100
:103B6000FB0184FB992790F921E0922790FB84F9CF
:103B70008093FB0185E30E94211D882359F08091E9
:103B8000FB0185FB992790F921E0922790FB85F9AD
:103B90008093FB0181E30E94211D882359F08091CD
:103BA000FB0186FB992790F921E0922790FB86F98B
:103BB0008093FB0181E10E94211D882359F08091AF
:103BC000FB0187FB992790F921E0922790FB87F969
:103BD0008093FB018091FB010E94981E8091FB0164
:103BE00087FB882780F980930D0187E20E94211DC1
:103BF000C82F8EE10E94211D8111C2608FE10E94B9
:103C0000211D8111C46080E20E94211D8111C860C4
:103C100081E20E94211D8111C06182E20E94211D6A
:103C20008111C06283E20E94211D8111C06484E27F
:103C30000E94211D8823C9F1C0688C2F0E948F1E0D
:103C40006C2F70E080E090E0CF910C9424190E94DA
:103C500092038FE39CE90197F1F700C0000007CFC2
:103C60008EE00E94211D882351F08091DC0182FBAF
:103C7000992790F921E0922790FB82F924CF80E1E7
:103C80000E94211D9091DC01882351F093FB88272D
:103C900080F921E0822780FB93F99093DC0115CF16
:103CA000892F809580FB90F9F8CFC111C6CF0E9473
:103CB0008B1E682FC6CFCF9108956DEE7EEF80E00A
:103CC00090E00E94C02460E082E090E00E94AE2478
:103CD00060E083E090E00E94AE2460E084E090E049
:103CE0000E94AE2460E085E090E00C94AE2480E079
:103CF00090E00E94A82421E08D3E9E4F09F020E034
:103D0000822F089582E090E00C94A024682F82E036
:103D100090E00C94AE2483E090E00C94A024682FF3
:103D200083E090E00C94AE2484E090E00C94A02416
:103D3000682F84E090E00C94AE248091E30180FF32
:103D400012C06091130185E0689FB0011124759540
:103D500067957595679560387105A8F561157105CA
:103D600081F581E0089581FF09C06091130185E02C
:103D7000689FB001112475956795EDCF82FF07C04C
:103D80006091130185E0689FB0011124E4CF909108
:103D9000E4019923A1F060911201961788F7209110
:103DA000130185E0289F90011124929FA001939F09
:103DB000500D112470E0CA010E947224CCCF65E03E
:103DC00070E0862F08958FE708958091E30180FFCA
:103DD0000CC06091110170E07595679575956795B8
:103DE0006115710539F581E0089581FF06C0609184
:103DF000110170E075956795F3CF82FF08C060915F
:103E0000110170E06038710558F38FE708958091D3
:103E1000E401882369F060911001861780F7909182
:103E20001101899FC001112470E00E947224EACF21
:103E300061E070E0862F0895803F31F40E949D1E5E
:103E400081958093E7010895813F19F40E949D1E9A
:103E5000F8CF823F31F40E949D1E81958093E60148
:103E60000895833F19F40E949D1EF8CF893F29F4DD
:103E70000E94E51E8093E80108958A3F21F40E9484
:103E8000E51E8195F7CF8B3F31F40E94E51E8195A9
:103E90008093E90108958C3F19F40E94E51EF8CF44
:103EA000843F31F48091E50181608093E5010895BC
:103EB000853F21F48091E5018260F7CF863F21F4B0
:103EC0008091E5018460F1CF873F21F48091E50185
:103ED0008860EBCF883F21F48091E5018061E5CFD8
:103EE0008D3F31F48091E30181608093E301089577
:103EF0008E3F21F48091E3018260F7CF8F3FB9F7C5
:103F00008091E3018460F1CF803FC1F48091E701AB
:103F100087FD1092E7018091E60181110EC080912A
:103F2000E70181110AC08091E801811106C08091EA
:103F3000E901811102C01092E4010895813F29F442
:103F40008091E70118162CF3E6CF9091E601823FAD
:103F500029F497FFE0CF1092E601DDCF833F19F4FB
:103F60001916CCF3D8CF893F39F48091E80118169F
:103F700094F61092E801CFCF8A3F29F48091E801AE
:103F800087FFC9CFF6CF8B3F39F48091E90187FFD6
:103F9000C2CF1092E901BFCF8C3F29F48091E90193
:103FA0001816BCF3B8CF843F31F48091E5018E7FC1
:103FB0008093E501B0CF853F21F48091E5018D7FAD
:103FC000F7CF863F21F48091E5018B7FF1CF873FCA
:103FD00021F48091E501877FEBCF883F21F4809128
:103FE000E5018F7EE5CF8D3F31F48091E3018E7F37
:103FF0008093E30190CF8E3F21F48091E3018D7F88
:10400000F7CF8F3F09F087CF8091E3018B7FF0CF0F
:1040100085EE91E00E94C0100E94761C9093E20110
:104020008093E10108951F93CF93DF938091E10185
:104030009091E2010E94821CAC019091E4019923CD
:10404000D1F02091140130E04217530780F08091A5
:10405000E601C091E701D091E8011091E9018111D9
:1040600011C0C1117FC0D1117DC011117BC0DF9182
:10407000CF911F910895209115018AE0289F90010A
:104080001124E2CF9F3F19F09F5F9093E40118162F
:1040900024F40E949D1E8093E6018091E60187FF33
:1040A00005C00E949D1E81958093E6011C1624F494
:1040B0000E949D1E8093E7018091E70187FF05C064
:1040C0000E949D1E81958093E7016091E601662321
:1040D00031F1C091E701CC2311F1062E000C770BD2
:1040E000880B990B0E94792323E333E343E35FE3D7
:1040F0000E94DD230E9441236093E6016C2FCC0FC8
:10410000770B880B990B0E94792323E333E343E376
:104110005FE30E94DD230E9441236093E7011D16A7
:1041200024F40E94E51E8093E8018091E80187FF56
:1041300005C00E94E51E81958093E801111624F4C4
:104140000E94E51E8093E9018091E90187FF05C087
:104150000E94E51E81958093E901DF91CF911F9127
:104160000C9408209F3F09F08FCFA0CFE5EEF1E03F
:1041700085E0DF011D928A95E9F71092E401109223
:10418000E3010895833081F128F4813059F08230C1
:10419000D1F00895853009F449C0B8F1863009F4AA
:1041A00056C0089580911501262F30E0280F311D4B
:1041B0002F3F310524F4680F6093150108958FEFA8
:1041C00080931501089580911401262F30E0280F67
:1041D000311D2F3F310524F4680F609314010895B9
:1041E0008FEF80931401089580911301262F30E002
:1041F000280F311D2F3F310524F4680F6093130100
:1042000008958FEF80931301089580911201262F56
:1042100030E0280F311D2F3F310524F4680F6093E3
:10422000120108958FEF809312010895809111017A
:10423000262F30E0280F311D2F3F310524F4680F61
:104240006093110108958FEF8093110108952091DB
:104250001001862F90E0820F911D8F3F910524F46D
:10426000620F6093100108958FEF809310010895FD
:10427000833011F128F4813049F0823091F00895B3
:10428000853081F120F18630C1F1089580911501CA
:10429000681720F4861B809315010895109215016C
:1042A000089580911401681720F4861B80931401EF
:1042B000089510921401089580911301681720F455
:1042C000861B809313010895109213010895809125
:1042D0001201681720F4861B809312010895109232
:1042E0001201089580911101681720F4861B8093B4
:1042F000110108951092110108958091100168171D
:1043000020F4861B809310010895109210010895E7
:104310000F931F9341E050E060E070E08A019B0141
:1043200004C0000F111F221F331F8A95D2F7C90145
:10433000B8010E9424191F910F910C9443158D31DF
:1043400009F460C0C8F58E3009F47DC078F4873078
:1043500009F469C028F4863009F45BC080E0089550
:10436000883011F08B30D1F781E008958631E1F388
:1043700070F4803109F475C0813181F70E944315D2
:1043800080910D0191E0892780930D01EDCF893156
:1043900059F38B3119F78091DC0181FB992790F952
:1043A00021E0922790FB81F98093DC0181FFDCCF33
:1043B0008091DC01816041C0853339F040F487325F
:1043C00021F008F460C0893249F680E059C0833496
:1043D00030F48A3308F053C0883331F2BFCF8334CE
:1043E000A1F3883409F0BACF0E9443152FEF83ED73
:1043F00090E3215080409040E1F700C000000E940F
:10440000D11CB2CF0E94FB220E94A9100E94B209C7
:10441000ABCF8091DC01817F8E7F8093DC0181E0D6
:104420008093EB0108958091DC01982F909590FB8B
:1044300080F980FF05C0866088608093DC0194CF9E
:10444000897F877FFACF8091DC0182FB992790F9E1
:1044500021E0922790FB82F98093DC0182FDA8CFB6
:1044600083CF8091DC0183FB992790F921E092278B
:1044700090FB83F98093DC0183FD9ACF75CF89533C
:104480000E94882171CF8D51FBCF80E008950C945C
:104490004522CF93C82F8091EB018130E1F038F0B5
:1044A000823009F43FC01092EB0180E012C0E0912D
:1044B0000E01F0910F018081813111F08232A9F754
:1044C0008C2F0E94472281111DC08C2F0E949F219A
:1044D0008170CF910895E0910E01F0910F018081DC
:1044E000813171F3823261F38C2F0E944522811158
:1044F00010C0C43181F048F4CB3059F0C03171F0B4
:1045000080E0E6CF81E090E0E3CFC93221F0C8330C
:10451000B9F781E0DDCF1092EB01F2CF82E080931A
:10452000EB01F7CFC93221F190F4C43109F120F445
:10453000C73089F181E0CDCFCE51C630D8F7EC2F0E
:10454000F0E0E65DFE4F80818093EA01F3CFCE3448
:1045500001F120F4CB3471F76AE005C0C13599F060
:10456000C23541F761E08091EA010E94C220E2CFAA
:104570008091EA01882319F01092EA01DBCF81E0F3
:104580008093EB01A6CF61E08091EA010E9438217F
:10459000D1CF6AE0F9CF8AE08093150194E190933E
:1045A000140193E0909313018093120188E08093AB
:1045B000110188E280931001BDCFE1E8F0E0808135
:1045C000886080838081816080838FB7F89493E0D6
:1045D0009093890090ED909388008FBF0895EFE647
:1045E000F0E08081826080830895EFE6F0E08081D2
:1045F0008D7F80830895EFE6F0E0808192E0892747
:10460000808308951F920F920FB60F9211242F935B
:104610003F934F935F936F937F938F939F93AF934A
:10462000BF93EF93FF938091EC019091ED01019680
:104630009093ED018093EC01811103C082E00E9410
:10464000B209E091ED01E695E695F0E0E05FFA4F02
:10465000E4918091EC018E1303C080E00E94B209C6
:10466000FF91EF91BF91AF919F918F917F916F914A
:104670005F914F913F912F910F900FBE0F901F9020
:1046800018950E9448236894B1110C94D72308957B
:104690000E94BC2388F09F5798F0B92F9927B751F3
:1046A000B0F0E1F0660F771F881F991F1AF0BA95D6
:1046B000C9F714C0B13091F00E94D623B1E008953B
:1046C0000C94D623672F782F8827B85F39F0B93F2D
:1046D000CCF3869577956795B395D9F73EF4909589
:1046E0008095709561957F4F8F4F9F4F0895E89407
:1046F00009C097FB3EF490958095709561957F4F2A
:104700008F4F9F4F9923A9F0F92F96E9BB279395D7
:10471000F695879577956795B795F111F8CFFAF4E7
:10472000BB0F11F460FF1BC06F5F7F4F8F4F9F4F18
:1047300016C0882311F096E911C0772321F09EE876
:10474000872F762F05C0662371F096E8862F70E0DC
:1047500060E02AF09A95660F771F881FDAF7880FB6
:104760009695879597F9089557FD9058440F551FD2
:1047700059F05F3F71F04795880F97FB991F61F0E3
:104780009F3F79F087950895121613061406551F5A
:10479000F2CF4695F1DF08C0161617061806991FC6
:1047A000F1CF86957105610508940895E894BB27BB
:1047B00066277727CB0197F908950E94F0230C9480
:1047C00061240E94532438F00E945A2420F095233B
:1047D00011F00C944A240C94502411240C94D723E7
:1047E0000E94B42370F3959FC1F3950F50E0551FBD
:1047F000629FF001729FBB27F00DB11D639FAA2736
:10480000F00DB11DAA1F649F6627B00DA11D661F84
:10481000829F2227B00DA11D621F739FB00DA11DA5
:10482000621F839FA00D611D221F749F3327A00D5F
:10483000611D231F849F600D211D822F762F6A2FFB
:1048400011249F5750409AF0F1F088234AF0EE0F60
:10485000FF1FBB1F661F771F881F91505040A9F78D
:104860009E3F510580F00C944A240C94D7235F3F5F
:10487000E4F3983ED4F3869577956795B795F795C9
:10488000E7959F5FC1F7FE2B880F911D9695879541
:1048900097F9089597F99F6780E870E060E00895C0
:1048A0009FEF80EC089500240A9416161706180648
:1048B0000906089500240A94121613061406050624
:1048C0000895092E0394000C11F4882352F0BB0FB5
:1048D00040F4BF2B11F460FF04C06F5F7F4F8F4F18
:1048E0009F4F089597FB072E16F4009407D077FD8D
:1048F00009D00E948C2407FC05D03EF49095819548
:104900009F4F0895709561957F4F0895EE0FFF1F9B
:104910000590F491E02D0994AA1BBB1B51E107C03F
:10492000AA1FBB1FA617B70710F0A61BB70B881F3F
:10493000991F5A95A9F780959095BC01CD010895CE
:10494000F999FECF92BD81BDF89A992780B5089557
:10495000A8E1B0E042E050E00C94C824262FF99979
:10496000FECF92BD81BDF89A019700B4021639F0CE
:104970001FBA20BD0FB6F894FA9AF99A0FBE08959F
:104980000196272F0E94AF240C94AE24DC01CB01AA
:10499000FC01F999FECF06C0F2BDE1BDF89A31964F
:1049A00000B40D9241505040B8F70895F894FFCFED
:1049B0000220B409440A1F0AEB09B7090101C90121
:1049C00028080A03140A404D3639D00483044D04E4
:1049D0001404A703C003D903F2030102030405066C
:0449E00007080900BB
:00000001FF
